{
  "contractName": "CryptoSneaker",
  "abi": [
    {
      "inputs": [],
      "stateMutability": "nonpayable",
      "type": "constructor"
    },
    {
      "anonymous": false,
      "inputs": [
        {
          "indexed": true,
          "internalType": "address",
          "name": "owner",
          "type": "address"
        },
        {
          "indexed": true,
          "internalType": "address",
          "name": "approved",
          "type": "address"
        },
        {
          "indexed": true,
          "internalType": "uint256",
          "name": "tokenId",
          "type": "uint256"
        }
      ],
      "name": "Approval",
      "type": "event"
    },
    {
      "anonymous": false,
      "inputs": [
        {
          "indexed": true,
          "internalType": "address",
          "name": "owner",
          "type": "address"
        },
        {
          "indexed": true,
          "internalType": "address",
          "name": "operator",
          "type": "address"
        },
        {
          "indexed": false,
          "internalType": "bool",
          "name": "approved",
          "type": "bool"
        }
      ],
      "name": "ApprovalForAll",
      "type": "event"
    },
    {
      "anonymous": false,
      "inputs": [
        {
          "indexed": false,
          "internalType": "address",
          "name": "manufacturer",
          "type": "address"
        },
        {
          "indexed": false,
          "internalType": "uint256",
          "name": "amount",
          "type": "uint256"
        }
      ],
      "name": "ManufacturerApproved",
      "type": "event"
    },
    {
      "anonymous": false,
      "inputs": [
        {
          "indexed": false,
          "internalType": "address",
          "name": "manufacturer",
          "type": "address"
        },
        {
          "indexed": false,
          "internalType": "uint256",
          "name": "amount",
          "type": "uint256"
        }
      ],
      "name": "ManufacturerDisapproved",
      "type": "event"
    },
    {
      "anonymous": false,
      "inputs": [
        {
          "indexed": false,
          "internalType": "address",
          "name": "manufacturer",
          "type": "address"
        },
        {
          "indexed": false,
          "internalType": "uint256",
          "name": "amount",
          "type": "uint256"
        }
      ],
      "name": "ManufacturerRequest",
      "type": "event"
    },
    {
      "anonymous": false,
      "inputs": [
        {
          "indexed": true,
          "internalType": "bytes32",
          "name": "role",
          "type": "bytes32"
        },
        {
          "indexed": true,
          "internalType": "bytes32",
          "name": "previousAdminRole",
          "type": "bytes32"
        },
        {
          "indexed": true,
          "internalType": "bytes32",
          "name": "newAdminRole",
          "type": "bytes32"
        }
      ],
      "name": "RoleAdminChanged",
      "type": "event"
    },
    {
      "anonymous": false,
      "inputs": [
        {
          "indexed": true,
          "internalType": "bytes32",
          "name": "role",
          "type": "bytes32"
        },
        {
          "indexed": true,
          "internalType": "address",
          "name": "account",
          "type": "address"
        },
        {
          "indexed": true,
          "internalType": "address",
          "name": "sender",
          "type": "address"
        }
      ],
      "name": "RoleGranted",
      "type": "event"
    },
    {
      "anonymous": false,
      "inputs": [
        {
          "indexed": true,
          "internalType": "bytes32",
          "name": "role",
          "type": "bytes32"
        },
        {
          "indexed": true,
          "internalType": "address",
          "name": "account",
          "type": "address"
        },
        {
          "indexed": true,
          "internalType": "address",
          "name": "sender",
          "type": "address"
        }
      ],
      "name": "RoleRevoked",
      "type": "event"
    },
    {
      "anonymous": false,
      "inputs": [
        {
          "indexed": true,
          "internalType": "address",
          "name": "from",
          "type": "address"
        },
        {
          "indexed": true,
          "internalType": "address",
          "name": "to",
          "type": "address"
        },
        {
          "indexed": true,
          "internalType": "uint256",
          "name": "tokenId",
          "type": "uint256"
        }
      ],
      "name": "Transfer",
      "type": "event"
    },
    {
      "inputs": [],
      "name": "ADMIN_ROLE",
      "outputs": [
        {
          "internalType": "bytes32",
          "name": "",
          "type": "bytes32"
        }
      ],
      "stateMutability": "view",
      "type": "function",
      "constant": true
    },
    {
      "inputs": [],
      "name": "DEFAULT_ADMIN_ROLE",
      "outputs": [
        {
          "internalType": "bytes32",
          "name": "",
          "type": "bytes32"
        }
      ],
      "stateMutability": "view",
      "type": "function",
      "constant": true
    },
    {
      "inputs": [],
      "name": "MANUFACTURER_ROLE",
      "outputs": [
        {
          "internalType": "bytes32",
          "name": "",
          "type": "bytes32"
        }
      ],
      "stateMutability": "view",
      "type": "function",
      "constant": true
    },
    {
      "inputs": [],
      "name": "PENDING_MANUFACTURER",
      "outputs": [
        {
          "internalType": "bytes32",
          "name": "",
          "type": "bytes32"
        }
      ],
      "stateMutability": "view",
      "type": "function",
      "constant": true
    },
    {
      "inputs": [
        {
          "internalType": "address",
          "name": "to",
          "type": "address"
        },
        {
          "internalType": "uint256",
          "name": "tokenId",
          "type": "uint256"
        }
      ],
      "name": "approve",
      "outputs": [],
      "stateMutability": "nonpayable",
      "type": "function"
    },
    {
      "inputs": [
        {
          "internalType": "address",
          "name": "owner",
          "type": "address"
        }
      ],
      "name": "balanceOf",
      "outputs": [
        {
          "internalType": "uint256",
          "name": "",
          "type": "uint256"
        }
      ],
      "stateMutability": "view",
      "type": "function",
      "constant": true
    },
    {
      "inputs": [],
      "name": "baseURI",
      "outputs": [
        {
          "internalType": "string",
          "name": "",
          "type": "string"
        }
      ],
      "stateMutability": "view",
      "type": "function",
      "constant": true
    },
    {
      "inputs": [
        {
          "internalType": "uint256",
          "name": "tokenId",
          "type": "uint256"
        }
      ],
      "name": "getApproved",
      "outputs": [
        {
          "internalType": "address",
          "name": "",
          "type": "address"
        }
      ],
      "stateMutability": "view",
      "type": "function",
      "constant": true
    },
    {
      "inputs": [
        {
          "internalType": "bytes32",
          "name": "role",
          "type": "bytes32"
        }
      ],
      "name": "getRoleAdmin",
      "outputs": [
        {
          "internalType": "bytes32",
          "name": "",
          "type": "bytes32"
        }
      ],
      "stateMutability": "view",
      "type": "function",
      "constant": true
    },
    {
      "inputs": [
        {
          "internalType": "bytes32",
          "name": "role",
          "type": "bytes32"
        },
        {
          "internalType": "uint256",
          "name": "index",
          "type": "uint256"
        }
      ],
      "name": "getRoleMember",
      "outputs": [
        {
          "internalType": "address",
          "name": "",
          "type": "address"
        }
      ],
      "stateMutability": "view",
      "type": "function",
      "constant": true
    },
    {
      "inputs": [
        {
          "internalType": "bytes32",
          "name": "role",
          "type": "bytes32"
        }
      ],
      "name": "getRoleMemberCount",
      "outputs": [
        {
          "internalType": "uint256",
          "name": "",
          "type": "uint256"
        }
      ],
      "stateMutability": "view",
      "type": "function",
      "constant": true
    },
    {
      "inputs": [
        {
          "internalType": "bytes32",
          "name": "role",
          "type": "bytes32"
        },
        {
          "internalType": "address",
          "name": "account",
          "type": "address"
        }
      ],
      "name": "grantRole",
      "outputs": [],
      "stateMutability": "nonpayable",
      "type": "function"
    },
    {
      "inputs": [
        {
          "internalType": "bytes32",
          "name": "role",
          "type": "bytes32"
        },
        {
          "internalType": "address",
          "name": "account",
          "type": "address"
        }
      ],
      "name": "hasRole",
      "outputs": [
        {
          "internalType": "bool",
          "name": "",
          "type": "bool"
        }
      ],
      "stateMutability": "view",
      "type": "function",
      "constant": true
    },
    {
      "inputs": [
        {
          "internalType": "address",
          "name": "owner",
          "type": "address"
        },
        {
          "internalType": "address",
          "name": "operator",
          "type": "address"
        }
      ],
      "name": "isApprovedForAll",
      "outputs": [
        {
          "internalType": "bool",
          "name": "",
          "type": "bool"
        }
      ],
      "stateMutability": "view",
      "type": "function",
      "constant": true
    },
    {
      "inputs": [],
      "name": "name",
      "outputs": [
        {
          "internalType": "string",
          "name": "",
          "type": "string"
        }
      ],
      "stateMutability": "view",
      "type": "function",
      "constant": true
    },
    {
      "inputs": [
        {
          "internalType": "uint256",
          "name": "tokenId",
          "type": "uint256"
        }
      ],
      "name": "ownerOf",
      "outputs": [
        {
          "internalType": "address",
          "name": "",
          "type": "address"
        }
      ],
      "stateMutability": "view",
      "type": "function",
      "constant": true
    },
    {
      "inputs": [
        {
          "internalType": "bytes32",
          "name": "role",
          "type": "bytes32"
        },
        {
          "internalType": "address",
          "name": "account",
          "type": "address"
        }
      ],
      "name": "renounceRole",
      "outputs": [],
      "stateMutability": "nonpayable",
      "type": "function"
    },
    {
      "inputs": [
        {
          "internalType": "address",
          "name": "",
          "type": "address"
        }
      ],
      "name": "requestedManufacturers",
      "outputs": [
        {
          "internalType": "uint256",
          "name": "",
          "type": "uint256"
        }
      ],
      "stateMutability": "view",
      "type": "function",
      "constant": true
    },
    {
      "inputs": [
        {
          "internalType": "bytes32",
          "name": "role",
          "type": "bytes32"
        },
        {
          "internalType": "address",
          "name": "account",
          "type": "address"
        }
      ],
      "name": "revokeRole",
      "outputs": [],
      "stateMutability": "nonpayable",
      "type": "function"
    },
    {
      "inputs": [
        {
          "internalType": "address",
          "name": "from",
          "type": "address"
        },
        {
          "internalType": "address",
          "name": "to",
          "type": "address"
        },
        {
          "internalType": "uint256",
          "name": "tokenId",
          "type": "uint256"
        }
      ],
      "name": "safeTransferFrom",
      "outputs": [],
      "stateMutability": "nonpayable",
      "type": "function"
    },
    {
      "inputs": [
        {
          "internalType": "address",
          "name": "from",
          "type": "address"
        },
        {
          "internalType": "address",
          "name": "to",
          "type": "address"
        },
        {
          "internalType": "uint256",
          "name": "tokenId",
          "type": "uint256"
        },
        {
          "internalType": "bytes",
          "name": "_data",
          "type": "bytes"
        }
      ],
      "name": "safeTransferFrom",
      "outputs": [],
      "stateMutability": "nonpayable",
      "type": "function"
    },
    {
      "inputs": [
        {
          "internalType": "address",
          "name": "operator",
          "type": "address"
        },
        {
          "internalType": "bool",
          "name": "approved",
          "type": "bool"
        }
      ],
      "name": "setApprovalForAll",
      "outputs": [],
      "stateMutability": "nonpayable",
      "type": "function"
    },
    {
      "inputs": [
        {
          "internalType": "uint256",
          "name": "",
          "type": "uint256"
        }
      ],
      "name": "sneakers",
      "outputs": [
        {
          "internalType": "address",
          "name": "manufacturer",
          "type": "address"
        },
        {
          "internalType": "string",
          "name": "modelId",
          "type": "string"
        },
        {
          "internalType": "uint8",
          "name": "size",
          "type": "uint8"
        },
        {
          "internalType": "string",
          "name": "name",
          "type": "string"
        }
      ],
      "stateMutability": "view",
      "type": "function",
      "constant": true
    },
    {
      "inputs": [
        {
          "internalType": "bytes4",
          "name": "interfaceId",
          "type": "bytes4"
        }
      ],
      "name": "supportsInterface",
      "outputs": [
        {
          "internalType": "bool",
          "name": "",
          "type": "bool"
        }
      ],
      "stateMutability": "view",
      "type": "function",
      "constant": true
    },
    {
      "inputs": [],
      "name": "symbol",
      "outputs": [
        {
          "internalType": "string",
          "name": "",
          "type": "string"
        }
      ],
      "stateMutability": "view",
      "type": "function",
      "constant": true
    },
    {
      "inputs": [
        {
          "internalType": "uint256",
          "name": "index",
          "type": "uint256"
        }
      ],
      "name": "tokenByIndex",
      "outputs": [
        {
          "internalType": "uint256",
          "name": "",
          "type": "uint256"
        }
      ],
      "stateMutability": "view",
      "type": "function",
      "constant": true
    },
    {
      "inputs": [
        {
          "internalType": "address",
          "name": "owner",
          "type": "address"
        },
        {
          "internalType": "uint256",
          "name": "index",
          "type": "uint256"
        }
      ],
      "name": "tokenOfOwnerByIndex",
      "outputs": [
        {
          "internalType": "uint256",
          "name": "",
          "type": "uint256"
        }
      ],
      "stateMutability": "view",
      "type": "function",
      "constant": true
    },
    {
      "inputs": [
        {
          "internalType": "uint256",
          "name": "tokenId",
          "type": "uint256"
        }
      ],
      "name": "tokenURI",
      "outputs": [
        {
          "internalType": "string",
          "name": "",
          "type": "string"
        }
      ],
      "stateMutability": "view",
      "type": "function",
      "constant": true
    },
    {
      "inputs": [],
      "name": "totalSupply",
      "outputs": [
        {
          "internalType": "uint256",
          "name": "",
          "type": "uint256"
        }
      ],
      "stateMutability": "view",
      "type": "function",
      "constant": true
    },
    {
      "inputs": [
        {
          "internalType": "address",
          "name": "from",
          "type": "address"
        },
        {
          "internalType": "address",
          "name": "to",
          "type": "address"
        },
        {
          "internalType": "uint256",
          "name": "tokenId",
          "type": "uint256"
        }
      ],
      "name": "transferFrom",
      "outputs": [],
      "stateMutability": "nonpayable",
      "type": "function"
    },
    {
      "inputs": [],
      "name": "requestManufacturerRole",
      "outputs": [],
      "stateMutability": "payable",
      "type": "function",
      "payable": true
    },
    {
      "inputs": [
        {
          "internalType": "address payable",
          "name": "_candidate",
          "type": "address"
        },
        {
          "internalType": "uint256",
          "name": "_amount",
          "type": "uint256"
        }
      ],
      "name": "approveManufacturer",
      "outputs": [],
      "stateMutability": "nonpayable",
      "type": "function"
    },
    {
      "inputs": [
        {
          "internalType": "address payable",
          "name": "_candidate",
          "type": "address"
        }
      ],
      "name": "disapproveManufacturer",
      "outputs": [],
      "stateMutability": "nonpayable",
      "type": "function"
    },
    {
      "inputs": [
        {
          "internalType": "string",
          "name": "_modelID",
          "type": "string"
        },
        {
          "internalType": "string",
          "name": "_name",
          "type": "string"
        },
        {
          "internalType": "uint8",
          "name": "_size",
          "type": "uint8"
        }
      ],
      "name": "mint",
      "outputs": [],
      "stateMutability": "nonpayable",
      "type": "function"
    },
    {
      "inputs": [
        {
          "internalType": "address",
          "name": "_owner",
          "type": "address"
        }
      ],
      "name": "getSneakersByOwner",
      "outputs": [
        {
          "internalType": "uint256[]",
          "name": "",
          "type": "uint256[]"
        }
      ],
      "stateMutability": "view",
      "type": "function",
      "constant": true
    }
  ],
  "bytecode": "0x60806040523480156200001157600080fd5b506040518060400160405280600d81526020017f43727970746f536e65616b6572000000000000000000000000000000000000008152506040518060400160405280600281526020017f4353000000000000000000000000000000000000000000000000000000000000815250620000966301ffc9a760e01b620001db60201b60201c565b8160069080519060200190620000ae929190620004df565b508060079080519060200190620000c7929190620004df565b50620000e06380ac58cd60e01b620001db60201b60201c565b620000f8635b5e139f60e01b620001db60201b60201c565b6200011063780e9d6360e01b620001db60201b60201c565b50506200015960405180807f41444d494e5f524f4c4500000000000000000000000000000000000000000000815250600a019050604051809103902033620002e460201b60201c565b620001d560405180807f50454e44494e475f4d414e5546414354555245520000000000000000000000008152506014019050604051809103902060405180807f41444d494e5f524f4c4500000000000000000000000000000000000000000000815250600a0190506040518091039020620002fa60201b60201c565b6200058e565b63ffffffff60e01b817bffffffffffffffffffffffffffffffffffffffffffffffffffffffff1916141562000278576040517f08c379a000000000000000000000000000000000000000000000000000000000815260040180806020018281038252601c8152602001807f4552433136353a20696e76616c696420696e746572666163652069640000000081525060200191505060405180910390fd5b6001600080837bffffffffffffffffffffffffffffffffffffffffffffffffffffffff19167bffffffffffffffffffffffffffffffffffffffffffffffffffffffff1916815260200190815260200160002060006101000a81548160ff02191690831515021790555050565b620002f682826200035e60201b60201c565b5050565b80600a600084815260200190815260200160002060020154837fbd79b86ffe0ab8e8776151514217cd7cacd52c909f66475c3af44e129f0b00ff60405160405180910390a480600a6000848152602001908152602001600020600201819055505050565b6200038d81600a60008581526020019081526020016000206000016200040260201b62003c801790919060201c565b15620003fe57620003a36200043a60201b60201c565b73ffffffffffffffffffffffffffffffffffffffff168173ffffffffffffffffffffffffffffffffffffffff16837f2f8788117e7eff1d82e926ec794901d17c78024a50270940304540a733656f0d60405160405180910390a45b5050565b600062000432836000018373ffffffffffffffffffffffffffffffffffffffff1660001b6200044260201b60201c565b905092915050565b600033905090565b6000620004568383620004bc60201b60201c565b620004b1578260000182908060018154018082558091505060019003906000526020600020016000909190919091505582600001805490508360010160008481526020019081526020016000208190555060019050620004b6565b600090505b92915050565b600080836001016000848152602001908152602001600020541415905092915050565b828054600181600116156101000203166002900490600052602060002090601f016020900481019282601f106200052257805160ff191683800117855562000553565b8280016001018555821562000553579182015b828111156200055257825182559160200191906001019062000535565b5b50905062000562919062000566565b5090565b6200058b91905b80821115620005875760008160009055506001016200056d565b5090565b90565b614c20806200059e6000396000f3fe6080604052600436106102045760003560e01c806375b238fc11610118578063b17586ba116100a0578063c87b56dd1161006f578063c87b56dd14611000578063ca15c873146110b4578063d547741f14611103578063e985e9c51461115e578063eecde885146111e757610204565b8063b17586ba14610c8d578063b88d4fde14610ce8578063bd2e065c14610dfa578063c32a9d4d14610f5a57610204565b8063965288b0116100e7578063965288b014610ba5578063a217fddf14610bd0578063a22cb46514610bfb578063a52bfce514610c58578063b11ee14614610c6257610204565b806375b238fc146109f25780639010d07c14610a1d57806391d1485414610aa257806395d89b4114610b1557610204565b80632f2ff15d1161019b5780634370ea2a1161016a5780634370ea2a146107e25780634f6ccce7146108335780636352211e146108825780636c0360eb146108fd57806370a082311461098d57610204565b80632f2ff15d146106425780632f745c591461069d57806336568abe1461070c57806342842e0e1461076757610204565b8063095ea7b3116101d7578063095ea7b3146104f257806318160ddd1461054d57806323b872dd14610578578063248a9ca3146105f357610204565b806301ffc9a71461020957806306fdde031461027b578063081812fc1461030b57806308aa46bf14610386575b600080fd5b34801561021557600080fd5b506102616004803603602081101561022c57600080fd5b8101908080357bffffffffffffffffffffffffffffffffffffffffffffffffffffffff1916906020019092919050505061124c565b604051808215151515815260200191505060405180910390f35b34801561028757600080fd5b506102906112b3565b6040518080602001828103825283818151815260200191508051906020019080838360005b838110156102d05780820151818401526020810190506102b5565b50505050905090810190601f1680156102fd5780820380516001836020036101000a031916815260200191505b509250505060405180910390f35b34801561031757600080fd5b506103446004803603602081101561032e57600080fd5b8101908080359060200190929190505050611355565b604051808273ffffffffffffffffffffffffffffffffffffffff1673ffffffffffffffffffffffffffffffffffffffff16815260200191505060405180910390f35b34801561039257600080fd5b506104f0600480360360608110156103a957600080fd5b81019080803590602001906401000000008111156103c657600080fd5b8201836020820111156103d857600080fd5b803590602001918460018302840111640100000000831117156103fa57600080fd5b91908080601f016020809104026020016040519081016040528093929190818152602001838380828437600081840152601f19601f8201169050808301925050505050505091929192908035906020019064010000000081111561045d57600080fd5b82018360208201111561046f57600080fd5b8035906020019184600183028401116401000000008311171561049157600080fd5b91908080601f016020809104026020016040519081016040528093929190818152602001838380828437600081840152601f19601f820116905080830192505050505050509192919290803560ff1690602001909291905050506113f0565b005b3480156104fe57600080fd5b5061054b6004803603604081101561051557600080fd5b81019080803573ffffffffffffffffffffffffffffffffffffffff169060200190929190803590602001909291905050506115c6565b005b34801561055957600080fd5b5061056261170a565b6040518082815260200191505060405180910390f35b34801561058457600080fd5b506105f16004803603606081101561059b57600080fd5b81019080803573ffffffffffffffffffffffffffffffffffffffff169060200190929190803573ffffffffffffffffffffffffffffffffffffffff1690602001909291908035906020019092919050505061171b565b005b3480156105ff57600080fd5b5061062c6004803603602081101561061657600080fd5b8101908080359060200190929190505050611791565b6040518082815260200191505060405180910390f35b34801561064e57600080fd5b5061069b6004803603604081101561066557600080fd5b8101908080359060200190929190803573ffffffffffffffffffffffffffffffffffffffff1690602001909291905050506117b1565b005b3480156106a957600080fd5b506106f6600480360360408110156106c057600080fd5b81019080803573ffffffffffffffffffffffffffffffffffffffff1690602001909291908035906020019092919050505061183b565b6040518082815260200191505060405180910390f35b34801561071857600080fd5b506107656004803603604081101561072f57600080fd5b8101908080359060200190929190803573ffffffffffffffffffffffffffffffffffffffff169060200190929190505050611896565b005b34801561077357600080fd5b506107e06004803603606081101561078a57600080fd5b81019080803573ffffffffffffffffffffffffffffffffffffffff169060200190929190803573ffffffffffffffffffffffffffffffffffffffff1690602001909291908035906020019092919050505061192f565b005b3480156107ee57600080fd5b506108316004803603602081101561080557600080fd5b81019080803573ffffffffffffffffffffffffffffffffffffffff16906020019092919050505061194f565b005b34801561083f57600080fd5b5061086c6004803603602081101561085657600080fd5b8101908080359060200190929190505050611c4f565b6040518082815260200191505060405180910390f35b34801561088e57600080fd5b506108bb600480360360208110156108a557600080fd5b8101908080359060200190929190505050611c72565b604051808273ffffffffffffffffffffffffffffffffffffffff1673ffffffffffffffffffffffffffffffffffffffff16815260200191505060405180910390f35b34801561090957600080fd5b50610912611ca9565b6040518080602001828103825283818151815260200191508051906020019080838360005b83811015610952578082015181840152602081019050610937565b50505050905090810190601f16801561097f5780820380516001836020036101000a031916815260200191505b509250505060405180910390f35b34801561099957600080fd5b506109dc600480360360208110156109b057600080fd5b81019080803573ffffffffffffffffffffffffffffffffffffffff169060200190929190505050611d4b565b6040518082815260200191505060405180910390f35b3480156109fe57600080fd5b50610a07611e20565b6040518082815260200191505060405180910390f35b348015610a2957600080fd5b50610a6060048036036040811015610a4057600080fd5b810190808035906020019092919080359060200190929190505050611e59565b604051808273ffffffffffffffffffffffffffffffffffffffff1673ffffffffffffffffffffffffffffffffffffffff16815260200191505060405180910390f35b348015610aae57600080fd5b50610afb60048036036040811015610ac557600080fd5b8101908080359060200190929190803573ffffffffffffffffffffffffffffffffffffffff169060200190929190505050611e8b565b604051808215151515815260200191505060405180910390f35b348015610b2157600080fd5b50610b2a611ebd565b6040518080602001828103825283818151815260200191508051906020019080838360005b83811015610b6a578082015181840152602081019050610b4f565b50505050905090810190601f168015610b975780820380516001836020036101000a031916815260200191505b509250505060405180910390f35b348015610bb157600080fd5b50610bba611f5f565b6040518082815260200191505060405180910390f35b348015610bdc57600080fd5b50610be5611f98565b6040518082815260200191505060405180910390f35b348015610c0757600080fd5b50610c5660048036036040811015610c1e57600080fd5b81019080803573ffffffffffffffffffffffffffffffffffffffff169060200190929190803515159060200190929190505050611f9f565b005b610c60612157565b005b348015610c6e57600080fd5b50610c776123ea565b6040518082815260200191505060405180910390f35b348015610c9957600080fd5b50610ce660048036036040811015610cb057600080fd5b81019080803573ffffffffffffffffffffffffffffffffffffffff16906020019092919080359060200190929190505050612423565b005b348015610cf457600080fd5b50610df860048036036080811015610d0b57600080fd5b81019080803573ffffffffffffffffffffffffffffffffffffffff169060200190929190803573ffffffffffffffffffffffffffffffffffffffff1690602001909291908035906020019092919080359060200190640100000000811115610d7257600080fd5b820183602082011115610d8457600080fd5b80359060200191846001830284011164010000000083111715610da657600080fd5b91908080601f016020809104026020016040519081016040528093929190818152602001838380828437600081840152601f19601f820116905080830192505050505050509192919290505050612777565b005b348015610e0657600080fd5b50610e3360048036036020811015610e1d57600080fd5b81019080803590602001909291905050506127ef565b604051808573ffffffffffffffffffffffffffffffffffffffff1673ffffffffffffffffffffffffffffffffffffffff168152602001806020018460ff1660ff16815260200180602001838103835286818151815260200191508051906020019080838360005b83811015610eb5578082015181840152602081019050610e9a565b50505050905090810190601f168015610ee25780820380516001836020036101000a031916815260200191505b50838103825284818151815260200191508051906020019080838360005b83811015610f1b578082015181840152602081019050610f00565b50505050905090810190601f168015610f485780820380516001836020036101000a031916815260200191505b50965050505050505060405180910390f35b348015610f6657600080fd5b50610fa960048036036020811015610f7d57600080fd5b81019080803573ffffffffffffffffffffffffffffffffffffffff16906020019092919050505061297c565b6040518080602001828103825283818151815260200191508051906020019060200280838360005b83811015610fec578082015181840152602081019050610fd1565b505050509050019250505060405180910390f35b34801561100c57600080fd5b506110396004803603602081101561102357600080fd5b8101908080359060200190929190505050612a86565b6040518080602001828103825283818151815260200191508051906020019080838360005b8381101561107957808201518184015260208101905061105e565b50505050905090810190601f1680156110a65780820380516001836020036101000a031916815260200191505b509250505060405180910390f35b3480156110c057600080fd5b506110ed600480360360208110156110d757600080fd5b8101908080359060200190929190505050612d6f565b6040518082815260200191505060405180910390f35b34801561110f57600080fd5b5061115c6004803603604081101561112657600080fd5b8101908080359060200190929190803573ffffffffffffffffffffffffffffffffffffffff169060200190929190505050612d96565b005b34801561116a57600080fd5b506111cd6004803603604081101561118157600080fd5b81019080803573ffffffffffffffffffffffffffffffffffffffff169060200190929190803573ffffffffffffffffffffffffffffffffffffffff169060200190929190505050612e20565b604051808215151515815260200191505060405180910390f35b3480156111f357600080fd5b506112366004803603602081101561120a57600080fd5b81019080803573ffffffffffffffffffffffffffffffffffffffff169060200190929190505050612eb4565b6040518082815260200191505060405180910390f35b6000806000837bffffffffffffffffffffffffffffffffffffffffffffffffffffffff19167bffffffffffffffffffffffffffffffffffffffffffffffffffffffff1916815260200190815260200160002060009054906101000a900460ff169050919050565b606060068054600181600116156101000203166002900480601f01602080910402602001604051908101604052809291908181526020018280546001816001161561010002031660029004801561134b5780601f106113205761010080835404028352916020019161134b565b820191906000526020600020905b81548152906001019060200180831161132e57829003601f168201915b5050505050905090565b600061136082612ecc565b6113b5576040517f08c379a000000000000000000000000000000000000000000000000000000000815260040180806020018281038252602c8152602001806149d2602c913960400191505060405180910390fd5b6004600083815260200190815260200160002060009054906101000a900473ffffffffffffffffffffffffffffffffffffffff169050919050565b61142f60405180807f4d414e5546414354555245525f524f4c450000000000000000000000000000008152506011019050604051809103902033611e8b565b6114a1576040517f08c379a000000000000000000000000000000000000000000000000000000000815260040180806020018281038252601a8152602001807f5265717569726573206d616e75666163747572657220726f6c6500000000000081525060200191505060405180910390fd5b6000600e60003386604051602001808373ffffffffffffffffffffffffffffffffffffffff1673ffffffffffffffffffffffffffffffffffffffff1660601b815260140182805190602001908083835b6020831061151457805182526020820191506020810190506020830392506114f1565b6001836020036101000a0380198251168184511680821785525050505050509050019250505060405160208183030381529060405280519060200120815260200190815260200160002054146115b5576040517f08c379a0000000000000000000000000000000000000000000000000000000008152600401808060200182810382526044815260200180614a826044913960600191505060405180910390fd5b6115c133848484612ee9565b505050565b60006115d182611c72565b90508073ffffffffffffffffffffffffffffffffffffffff168373ffffffffffffffffffffffffffffffffffffffff161415611658576040517f08c379a0000000000000000000000000000000000000000000000000000000008152600401808060200182810382526021815260200180614ac66021913960400191505060405180910390fd5b8073ffffffffffffffffffffffffffffffffffffffff16611677613184565b73ffffffffffffffffffffffffffffffffffffffff1614806116a657506116a5816116a0613184565b612e20565b5b6116fb576040517f08c379a00000000000000000000000000000000000000000000000000000000081526004018080602001828103825260388152602001806149256038913960400191505060405180910390fd5b611705838361318c565b505050565b60006117166002613245565b905090565b61172c611726613184565b8261325a565b611781576040517f08c379a0000000000000000000000000000000000000000000000000000000008152600401808060200182810382526031815260200180614ae76031913960400191505060405180910390fd5b61178c83838361334e565b505050565b6000600a6000838152602001908152602001600020600201549050919050565b6117d8600a6000848152602001908152602001600020600201546117d3613184565b611e8b565b61182d576040517f08c379a000000000000000000000000000000000000000000000000000000000815260040180806020018281038252602f8152602001806147e6602f913960400191505060405180910390fd5b6118378282613591565b5050565b600061188e82600160008673ffffffffffffffffffffffffffffffffffffffff1673ffffffffffffffffffffffffffffffffffffffff16815260200190815260200160002061362590919063ffffffff16565b905092915050565b61189e613184565b73ffffffffffffffffffffffffffffffffffffffff168173ffffffffffffffffffffffffffffffffffffffff1614611921576040517f08c379a000000000000000000000000000000000000000000000000000000000815260040180806020018281038252602f815260200180614bbc602f913960400191505060405180910390fd5b61192b828261363f565b5050565b61194a83838360405180602001604052806000815250612777565b505050565b61198e60405180807f41444d494e5f524f4c4500000000000000000000000000000000000000000000815250600a019050604051809103902033611e8b565b611a00576040517f08c379a00000000000000000000000000000000000000000000000000000000081526004018080602001828103825260138152602001807f52657175697265732061646d696e20726f6c650000000000000000000000000081525060200191505060405180910390fd5b6000600c60008373ffffffffffffffffffffffffffffffffffffffff1673ffffffffffffffffffffffffffffffffffffffff1681526020019081526020016000205411611a98576040517f08c379a0000000000000000000000000000000000000000000000000000000008152600401808060200182810382526026815260200180614b186026913960400191505060405180910390fd5b8073ffffffffffffffffffffffffffffffffffffffff166108fc600c60008473ffffffffffffffffffffffffffffffffffffffff1673ffffffffffffffffffffffffffffffffffffffff168152602001908152602001600020549081150290604051600060405180830381858888f19350505050158015611b1d573d6000803e3d6000fd5b507f6c2e307e302f497d0c08d586c86d709a15404e55a99b585ca75bd4cca4eecaa881600c60008473ffffffffffffffffffffffffffffffffffffffff1673ffffffffffffffffffffffffffffffffffffffff16815260200190815260200160002054604051808373ffffffffffffffffffffffffffffffffffffffff1673ffffffffffffffffffffffffffffffffffffffff1681526020018281526020019250505060405180910390a16000600c60008373ffffffffffffffffffffffffffffffffffffffff1673ffffffffffffffffffffffffffffffffffffffff16815260200190815260200160002081905550611c4c60405180807f50454e44494e475f4d414e5546414354555245520000000000000000000000008152506014019050604051809103902082612d96565b50565b600080611c668360026136d390919063ffffffff16565b50905080915050919050565b6000611ca2826040518060600160405280602981526020016149876029913960026137029092919063ffffffff16565b9050919050565b606060098054600181600116156101000203166002900480601f016020809104026020016040519081016040528092919081815260200182805460018160011615610100020316600290048015611d415780601f10611d1657610100808354040283529160200191611d41565b820191906000526020600020905b815481529060010190602001808311611d2457829003601f168201915b5050505050905090565b60008073ffffffffffffffffffffffffffffffffffffffff168273ffffffffffffffffffffffffffffffffffffffff161415611dd2576040517f08c379a000000000000000000000000000000000000000000000000000000000815260040180806020018281038252602a81526020018061495d602a913960400191505060405180910390fd5b611e19600160008473ffffffffffffffffffffffffffffffffffffffff1673ffffffffffffffffffffffffffffffffffffffff168152602001908152602001600020613721565b9050919050565b60405180807f41444d494e5f524f4c4500000000000000000000000000000000000000000000815250600a019050604051809103902081565b6000611e8382600a600086815260200190815260200160002060000161373690919063ffffffff16565b905092915050565b6000611eb582600a600086815260200190815260200160002060000161375090919063ffffffff16565b905092915050565b606060078054600181600116156101000203166002900480601f016020809104026020016040519081016040528092919081815260200182805460018160011615610100020316600290048015611f555780601f10611f2a57610100808354040283529160200191611f55565b820191906000526020600020905b815481529060010190602001808311611f3857829003601f168201915b5050505050905090565b60405180807f4d414e5546414354555245525f524f4c450000000000000000000000000000008152506011019050604051809103902081565b6000801b81565b611fa7613184565b73ffffffffffffffffffffffffffffffffffffffff168273ffffffffffffffffffffffffffffffffffffffff161415612048576040517f08c379a00000000000000000000000000000000000000000000000000000000081526004018080602001828103825260198152602001807f4552433732313a20617070726f766520746f2063616c6c65720000000000000081525060200191505060405180910390fd5b8060056000612055613184565b73ffffffffffffffffffffffffffffffffffffffff1673ffffffffffffffffffffffffffffffffffffffff16815260200190815260200160002060008473ffffffffffffffffffffffffffffffffffffffff1673ffffffffffffffffffffffffffffffffffffffff16815260200190815260200160002060006101000a81548160ff0219169083151502179055508173ffffffffffffffffffffffffffffffffffffffff16612102613184565b73ffffffffffffffffffffffffffffffffffffffff167f17307eab39ab6107e8899845ad3d59bd9653f200f220920489ca2b5937696c3183604051808215151515815260200191505060405180910390a35050565b600034116121b0576040517f08c379a0000000000000000000000000000000000000000000000000000000008152600401808060200182810382526025815260200180614b756025913960400191505060405180910390fd5b6121ef60405180807f4d414e5546414354555245525f524f4c450000000000000000000000000000008152506011019050604051809103902033611e8b565b15612245576040517f08c379a0000000000000000000000000000000000000000000000000000000008152600401808060200182810382526022815260200180614b9a6022913960400191505060405180910390fd5b6000600c60003373ffffffffffffffffffffffffffffffffffffffff1673ffffffffffffffffffffffffffffffffffffffff16815260200190815260200160002054146122fa576040517f08c379a00000000000000000000000000000000000000000000000000000000081526004018080602001828103825260178152602001807f416c72656164792070656e64696e67207265717565737400000000000000000081525060200191505060405180910390fd5b34600c60003373ffffffffffffffffffffffffffffffffffffffff1673ffffffffffffffffffffffffffffffffffffffff1681526020019081526020016000208190555061237d60405180807f50454e44494e475f4d414e5546414354555245520000000000000000000000008152506014019050604051809103902033613780565b7fdcb5c1bce12176b90f48f2b4edcb83376c310d73b0d48d3499db1e6fe5f1f6423334604051808373ffffffffffffffffffffffffffffffffffffffff1673ffffffffffffffffffffffffffffffffffffffff1681526020018281526020019250505060405180910390a1565b60405180807f50454e44494e475f4d414e5546414354555245520000000000000000000000008152506014019050604051809103902081565b61246260405180807f41444d494e5f524f4c4500000000000000000000000000000000000000000000815250600a019050604051809103902033611e8b565b6124d4576040517f08c379a00000000000000000000000000000000000000000000000000000000081526004018080602001828103825260138152602001807f52657175697265732061646d696e20726f6c650000000000000000000000000081525060200191505060405180910390fd5b6000600c60008473ffffffffffffffffffffffffffffffffffffffff1673ffffffffffffffffffffffffffffffffffffffff16815260200190815260200160002054118015612562575080600c60008473ffffffffffffffffffffffffffffffffffffffff1673ffffffffffffffffffffffffffffffffffffffff1681526020019081526020016000205410155b6125b7576040517f08c379a0000000000000000000000000000000000000000000000000000000008152600401808060200182810382526037815260200180614b3e6037913960400191505060405180910390fd5b600081600c60008573ffffffffffffffffffffffffffffffffffffffff1673ffffffffffffffffffffffffffffffffffffffff1681526020019081526020016000205403111561268a578173ffffffffffffffffffffffffffffffffffffffff166108fc82600c60008673ffffffffffffffffffffffffffffffffffffffff1673ffffffffffffffffffffffffffffffffffffffff16815260200190815260200160002054039081150290604051600060405180830381858888f19350505050158015612688573d6000803e3d6000fd5b505b7f3eb9ce84b6900a48c8ea1bc7e525d6bfa617156d405ef9e1eb73232776dafaf68282604051808373ffffffffffffffffffffffffffffffffffffffff1673ffffffffffffffffffffffffffffffffffffffff1681526020018281526020019250505060405180910390a161273460405180807f50454e44494e475f4d414e5546414354555245520000000000000000000000008152506014019050604051809103902033612d96565b61277360405180807f4d414e5546414354555245525f524f4c450000000000000000000000000000008152506011019050604051809103902083613780565b5050565b612788612782613184565b8361325a565b6127dd576040517f08c379a0000000000000000000000000000000000000000000000000000000008152600401808060200182810382526031815260200180614ae76031913960400191505060405180910390fd5b6127e98484848461378e565b50505050565b600d6020528060005260406000206000915090508060000160009054906101000a900473ffffffffffffffffffffffffffffffffffffffff1690806001018054600181600116156101000203166002900480601f0160208091040260200160405190810160405280929190818152602001828054600181600116156101000203166002900480156128c15780601f10612896576101008083540402835291602001916128c1565b820191906000526020600020905b8154815290600101906020018083116128a457829003601f168201915b5050505050908060020160009054906101000a900460ff1690806003018054600181600116156101000203166002900480601f0160208091040260200160405190810160405280929190818152602001828054600181600116156101000203166002900480156129725780601f1061294757610100808354040283529160200191612972565b820191906000526020600020905b81548152906001019060200180831161295557829003601f168201915b5050505050905084565b6060806129c6600160008573ffffffffffffffffffffffffffffffffffffffff1673ffffffffffffffffffffffffffffffffffffffff168152602001908152602001600020613721565b6040519080825280602002602001820160405280156129f45781602001602082028038833980820191505090505b50905060008090505b8151811015612a7c57612a5781600160008773ffffffffffffffffffffffffffffffffffffffff1673ffffffffffffffffffffffffffffffffffffffff16815260200190815260200160002061362590919063ffffffff16565b828281518110612a6357fe5b60200260200101818152505080806001019150506129fd565b5080915050919050565b6060612a9182612ecc565b612ae6576040517f08c379a000000000000000000000000000000000000000000000000000000000815260040180806020018281038252602f815260200180614a53602f913960400191505060405180910390fd5b6060600860008481526020019081526020016000208054600181600116156101000203166002900480601f016020809104026020016040519081016040528092919081815260200182805460018160011615610100020316600290048015612b8f5780601f10612b6457610100808354040283529160200191612b8f565b820191906000526020600020905b815481529060010190602001808311612b7257829003601f168201915b50505050509050600060098054600181600116156101000203166002900490501415612bbe5780915050612d6a565b600081511115612c97576009816040516020018083805460018160011615610100020316600290048015612c295780601f10612c07576101008083540402835291820191612c29565b820191906000526020600020905b815481529060010190602001808311612c15575b505082805190602001908083835b60208310612c5a5780518252602082019150602081019050602083039250612c37565b6001836020036101000a03801982511681845116808217855250505050505090500192505050604051602081830303815290604052915050612d6a565b6009612ca284613800565b6040516020018083805460018160011615610100020316600290048015612d005780601f10612cde576101008083540402835291820191612d00565b820191906000526020600020905b815481529060010190602001808311612cec575b505082805190602001908083835b60208310612d315780518252602082019150602081019050602083039250612d0e565b6001836020036101000a038019825116818451168082178552505050505050905001925050506040516020818303038152906040529150505b919050565b6000612d8f600a6000848152602001908152602001600020600001613930565b9050919050565b612dbd600a600084815260200190815260200160002060020154612db8613184565b611e8b565b612e12576040517f08c379a00000000000000000000000000000000000000000000000000000000081526004018080602001828103825260308152602001806148f56030913960400191505060405180910390fd5b612e1c828261363f565b5050565b6000600560008473ffffffffffffffffffffffffffffffffffffffff1673ffffffffffffffffffffffffffffffffffffffff16815260200190815260200160002060008373ffffffffffffffffffffffffffffffffffffffff1673ffffffffffffffffffffffffffffffffffffffff16815260200190815260200160002060009054906101000a900460ff16905092915050565b600c6020528060005260406000206000915090505481565b6000612ee282600261394590919063ffffffff16565b9050919050565b600f83511115612f44576040517f08c379a000000000000000000000000000000000000000000000000000000000815260040180806020018281038252603c8152602001806147aa603c913960400191505060405180910390fd5b603282511115612f9f576040517f08c379a00000000000000000000000000000000000000000000000000000000081526004018080602001828103825260388152602001806148476038913960400191505060405180910390fd5b612fa9600b61395f565b6000612fb5600b613975565b9050612fc18582613983565b612fcb8184613b77565b80600e60008787604051602001808373ffffffffffffffffffffffffffffffffffffffff1673ffffffffffffffffffffffffffffffffffffffff1660601b815260140182805190602001908083835b6020831061303d578051825260208201915060208101905060208303925061301a565b6001836020036101000a038019825116818451168082178552505050505050905001925050506040516020818303038152906040528051906020012081526020019081526020016000208190555060405180608001604052808673ffffffffffffffffffffffffffffffffffffffff1681526020018581526020018360ff16815260200184815250600d600083815260200190815260200160002060008201518160000160006101000a81548173ffffffffffffffffffffffffffffffffffffffff021916908373ffffffffffffffffffffffffffffffffffffffff160217905550602082015181600101908051906020019061313b929190614662565b5060408201518160020160006101000a81548160ff021916908360ff1602179055506060820151816003019080519060200190613179929190614662565b509050505050505050565b600033905090565b816004600083815260200190815260200160002060006101000a81548173ffffffffffffffffffffffffffffffffffffffff021916908373ffffffffffffffffffffffffffffffffffffffff160217905550808273ffffffffffffffffffffffffffffffffffffffff166131ff83611c72565b73ffffffffffffffffffffffffffffffffffffffff167f8c5be1e5ebec7d5bd14f71427d1e84f3dd0314c0f7b2291e5b200ac8c7c3b92560405160405180910390a45050565b600061325382600001613c01565b9050919050565b600061326582612ecc565b6132ba576040517f08c379a000000000000000000000000000000000000000000000000000000000815260040180806020018281038252602c8152602001806148c9602c913960400191505060405180910390fd5b60006132c583611c72565b90508073ffffffffffffffffffffffffffffffffffffffff168473ffffffffffffffffffffffffffffffffffffffff16148061333457508373ffffffffffffffffffffffffffffffffffffffff1661331c84611355565b73ffffffffffffffffffffffffffffffffffffffff16145b8061334557506133448185612e20565b5b91505092915050565b8273ffffffffffffffffffffffffffffffffffffffff1661336e82611c72565b73ffffffffffffffffffffffffffffffffffffffff16146133da576040517f08c379a0000000000000000000000000000000000000000000000000000000008152600401808060200182810382526029815260200180614a2a6029913960400191505060405180910390fd5b600073ffffffffffffffffffffffffffffffffffffffff168273ffffffffffffffffffffffffffffffffffffffff161415613460576040517f08c379a000000000000000000000000000000000000000000000000000000000815260040180806020018281038252602481526020018061487f6024913960400191505060405180910390fd5b61346b838383613c12565b61347660008261318c565b6134c781600160008673ffffffffffffffffffffffffffffffffffffffff1673ffffffffffffffffffffffffffffffffffffffff168152602001908152602001600020613c1790919063ffffffff16565b5061351981600160008573ffffffffffffffffffffffffffffffffffffffff1673ffffffffffffffffffffffffffffffffffffffff168152602001908152602001600020613c3190919063ffffffff16565b5061353081836002613c4b9092919063ffffffff16565b50808273ffffffffffffffffffffffffffffffffffffffff168473ffffffffffffffffffffffffffffffffffffffff167fddf252ad1be2c89b69c2b068fc378daa952ba7f163c4a11628f55a4df523b3ef60405160405180910390a4505050565b6135b981600a6000858152602001908152602001600020600001613c8090919063ffffffff16565b15613621576135c6613184565b73ffffffffffffffffffffffffffffffffffffffff168173ffffffffffffffffffffffffffffffffffffffff16837f2f8788117e7eff1d82e926ec794901d17c78024a50270940304540a733656f0d60405160405180910390a45b5050565b60006136348360000183613cb0565b60001c905092915050565b61366781600a6000858152602001908152602001600020600001613d3390919063ffffffff16565b156136cf57613674613184565b73ffffffffffffffffffffffffffffffffffffffff168173ffffffffffffffffffffffffffffffffffffffff16837ff6391f5c32d9c69d2a47ea670b442974b53935d1edc7fd64eb21e047a839171b60405160405180910390a45b5050565b6000806000806136e68660000186613d63565b915091508160001c8160001c8090509350935050509250929050565b6000613715846000018460001b84613dfc565b60001c90509392505050565b600061372f82600001613ef2565b9050919050565b60006137458360000183613cb0565b60001c905092915050565b6000613778836000018373ffffffffffffffffffffffffffffffffffffffff1660001b613f03565b905092915050565b61378a8282613591565b5050565b61379984848461334e565b6137a584848484613f26565b6137fa576040517f08c379a00000000000000000000000000000000000000000000000000000000081526004018080602001828103825260328152602001806148156032913960400191505060405180910390fd5b50505050565b60606000821415613848576040518060400160405280600181526020017f3000000000000000000000000000000000000000000000000000000000000000815250905061392b565b600082905060005b60008214613872578080600101915050600a828161386a57fe5b049150613850565b6060816040519080825280601f01601f1916602001820160405280156138a75781602001600182028038833980820191505090505b50905060006001830390508593505b6000841461392357600a84816138c857fe5b0660300160f81b828280600190039350815181106138e257fe5b60200101907effffffffffffffffffffffffffffffffffffffffffffffffffffffffffffff1916908160001a905350600a848161391b57fe5b0493506138b6565b819450505050505b919050565b600061393e82600001613ef2565b9050919050565b6000613957836000018360001b61416b565b905092915050565b6001816000016000828254019250508190555050565b600081600001549050919050565b600073ffffffffffffffffffffffffffffffffffffffff168273ffffffffffffffffffffffffffffffffffffffff161415613a26576040517f08c379a00000000000000000000000000000000000000000000000000000000081526004018080602001828103825260208152602001807f4552433732313a206d696e7420746f20746865207a65726f206164647265737381525060200191505060405180910390fd5b613a2f81612ecc565b15613aa2576040517f08c379a000000000000000000000000000000000000000000000000000000000815260040180806020018281038252601c8152602001807f4552433732313a20746f6b656e20616c7265616479206d696e7465640000000081525060200191505060405180910390fd5b613aae60008383613c12565b613aff81600160008573ffffffffffffffffffffffffffffffffffffffff1673ffffffffffffffffffffffffffffffffffffffff168152602001908152602001600020613c3190919063ffffffff16565b50613b1681836002613c4b9092919063ffffffff16565b50808273ffffffffffffffffffffffffffffffffffffffff16600073ffffffffffffffffffffffffffffffffffffffff167fddf252ad1be2c89b69c2b068fc378daa952ba7f163c4a11628f55a4df523b3ef60405160405180910390a45050565b613b8082612ecc565b613bd5576040517f08c379a000000000000000000000000000000000000000000000000000000000815260040180806020018281038252602c8152602001806149fe602c913960400191505060405180910390fd5b80600860008481526020019081526020016000209080519060200190613bfc9291906146e2565b505050565b600081600001805490509050919050565b505050565b6000613c29836000018360001b61418e565b905092915050565b6000613c43836000018360001b614276565b905092915050565b6000613c77846000018460001b8473ffffffffffffffffffffffffffffffffffffffff1660001b6142e6565b90509392505050565b6000613ca8836000018373ffffffffffffffffffffffffffffffffffffffff1660001b614276565b905092915050565b600081836000018054905011613d11576040517f08c379a00000000000000000000000000000000000000000000000000000000081526004018080602001828103825260228152602001806147886022913960400191505060405180910390fd5b826000018281548110613d2057fe5b9060005260206000200154905092915050565b6000613d5b836000018373ffffffffffffffffffffffffffffffffffffffff1660001b61418e565b905092915050565b60008082846000018054905011613dc5576040517f08c379a00000000000000000000000000000000000000000000000000000000081526004018080602001828103825260228152602001806149b06022913960400191505060405180910390fd5b6000846000018481548110613dd657fe5b906000526020600020906002020190508060000154816001015492509250509250929050565b60008084600101600085815260200190815260200160002054905060008114158390613ec3576040517f08c379a00000000000000000000000000000000000000000000000000000000081526004018080602001828103825283818151815260200191508051906020019080838360005b83811015613e88578082015181840152602081019050613e6d565b50505050905090810190601f168015613eb55780820380516001836020036101000a031916815260200191505b509250505060405180910390fd5b50846000016001820381548110613ed657fe5b9060005260206000209060020201600101549150509392505050565b600081600001805490509050919050565b600080836001016000848152602001908152602001600020541415905092915050565b6000613f478473ffffffffffffffffffffffffffffffffffffffff166143c2565b613f545760019050614163565b60606140ea63150b7a0260e01b613f69613184565b888787604051602401808573ffffffffffffffffffffffffffffffffffffffff1673ffffffffffffffffffffffffffffffffffffffff1681526020018473ffffffffffffffffffffffffffffffffffffffff1673ffffffffffffffffffffffffffffffffffffffff16815260200183815260200180602001828103825283818151815260200191508051906020019080838360005b83811015614019578082015181840152602081019050613ffe565b50505050905090810190601f1680156140465780820380516001836020036101000a031916815260200191505b5095505050505050604051602081830303815290604052907bffffffffffffffffffffffffffffffffffffffffffffffffffffffff19166020820180517bffffffffffffffffffffffffffffffffffffffffffffffffffffffff8381831617835250505050604051806060016040528060328152602001614815603291398773ffffffffffffffffffffffffffffffffffffffff166143d59092919063ffffffff16565b9050600081806020019051602081101561410357600080fd5b8101908080519060200190929190505050905063150b7a0260e01b7bffffffffffffffffffffffffffffffffffffffffffffffffffffffff1916817bffffffffffffffffffffffffffffffffffffffffffffffffffffffff191614925050505b949350505050565b600080836001016000848152602001908152602001600020541415905092915050565b6000808360010160008481526020019081526020016000205490506000811461426a57600060018203905060006001866000018054905003905060008660000182815481106141d957fe5b90600052602060002001549050808760000184815481106141f657fe5b906000526020600020018190555060018301876001016000838152602001908152602001600020819055508660000180548061422e57fe5b60019003818190600052602060002001600090559055866001016000878152602001908152602001600020600090556001945050505050614270565b60009150505b92915050565b60006142828383613f03565b6142db5782600001829080600181540180825580915050600190039060005260206000200160009091909190915055826000018054905083600101600084815260200190815260200160002081905550600190506142e0565b600090505b92915050565b600080846001016000858152602001908152602001600020549050600081141561438d578460000160405180604001604052808681526020018581525090806001815401808255809150506001900390600052602060002090600202016000909190919091506000820151816000015560208201518160010155505084600001805490508560010160008681526020019081526020016000208190555060019150506143bb565b828560000160018303815481106143a057fe5b90600052602060002090600202016001018190555060009150505b9392505050565b600080823b905060008111915050919050565b60606143e484846000856143ed565b90509392505050565b606082471015614448576040517f08c379a00000000000000000000000000000000000000000000000000000000081526004018080602001828103825260268152602001806148a36026913960400191505060405180910390fd5b614451856143c2565b6144c3576040517f08c379a000000000000000000000000000000000000000000000000000000000815260040180806020018281038252601d8152602001807f416464726573733a2063616c6c20746f206e6f6e2d636f6e747261637400000081525060200191505060405180910390fd5b600060608673ffffffffffffffffffffffffffffffffffffffff1685876040518082805190602001908083835b6020831061451357805182526020820191506020810190506020830392506144f0565b6001836020036101000a03801982511681845116808217855250505050505090500191505060006040518083038185875af1925050503d8060008114614575576040519150601f19603f3d011682016040523d82523d6000602084013e61457a565b606091505b509150915061458a828286614596565b92505050949350505050565b606083156145a65782905061465b565b6000835111156145b95782518084602001fd5b816040517f08c379a00000000000000000000000000000000000000000000000000000000081526004018080602001828103825283818151815260200191508051906020019080838360005b83811015614620578082015181840152602081019050614605565b50505050905090810190601f16801561464d5780820380516001836020036101000a031916815260200191505b509250505060405180910390fd5b9392505050565b828054600181600116156101000203166002900490600052602060002090601f016020900481019282601f106146a357805160ff19168380011785556146d1565b828001600101855582156146d1579182015b828111156146d05782518255916020019190600101906146b5565b5b5090506146de9190614762565b5090565b828054600181600116156101000203166002900490600052602060002090601f016020900481019282601f1061472357805160ff1916838001178555614751565b82800160010185558215614751579182015b82811115614750578251825591602001919060010190614735565b5b50905061475e9190614762565b5090565b61478491905b80821115614780576000816000905550600101614768565b5090565b9056fe456e756d657261626c655365743a20696e646578206f7574206f6620626f756e6473536e65616b65722773206d6f64656c20696420697320746f6f206c6f6e672c20657870656374656420757020746f2031352063686172616374657273416363657373436f6e74726f6c3a2073656e646572206d75737420626520616e2061646d696e20746f206772616e744552433732313a207472616e7366657220746f206e6f6e20455243373231526563656976657220696d706c656d656e746572536e65616b65722773206e616d6520697320746f6f206c6f6e672c20657870656374656420757020746f20353020636861726163746572734552433732313a207472616e7366657220746f20746865207a65726f2061646472657373416464726573733a20696e73756666696369656e742062616c616e636520666f722063616c6c4552433732313a206f70657261746f7220717565727920666f72206e6f6e6578697374656e7420746f6b656e416363657373436f6e74726f6c3a2073656e646572206d75737420626520616e2061646d696e20746f207265766f6b654552433732313a20617070726f76652063616c6c6572206973206e6f74206f776e6572206e6f7220617070726f76656420666f7220616c6c4552433732313a2062616c616e636520717565727920666f7220746865207a65726f20616464726573734552433732313a206f776e657220717565727920666f72206e6f6e6578697374656e7420746f6b656e456e756d657261626c654d61703a20696e646578206f7574206f6620626f756e64734552433732313a20617070726f76656420717565727920666f72206e6f6e6578697374656e7420746f6b656e4552433732314d657461646174613a2055524920736574206f66206e6f6e6578697374656e7420746f6b656e4552433732313a207472616e73666572206f6620746f6b656e2074686174206973206e6f74206f776e4552433732314d657461646174613a2055524920717565727920666f72206e6f6e6578697374656e7420746f6b656e476976656e206d616e75666163747572657220616c7265616479206861732063726561746564206120736e65616b6572207769746820676976656e206d6f64656c2069644552433732313a20617070726f76616c20746f2063757272656e74206f776e65724552433732313a207472616e736665722063616c6c6572206973206e6f74206f776e6572206e6f7220617070726f76656443616e646964617465206d75737420657869737420746f20646973617070726f76652068696d43616e646964617465206d75737420657869737420616e64206861766520656e6f75676820616d6f756e74206f662063757272656e63795265717565737420616d6f756e74206d7573742062652067726561746572207468616e203053656e64657220697320616c726561647920746865206d616e756661637475726572416363657373436f6e74726f6c3a2063616e206f6e6c792072656e6f756e636520726f6c657320666f722073656c66a264697066735822122021a1073d0cc0928a561e31c8b926b9487e3d3f880fb1e21be9f503ba3eecced064736f6c63430006020033",
  "source": "pragma solidity ^0.6.2;\n\nimport \"./CustomERC721.sol\";\n// import \"../node_modules/@openzeppelin/contracts/token/ERC721/ERC721.sol\";\nimport \"../node_modules/@openzeppelin/contracts/math/SafeMath.sol\";\nimport \"../node_modules/@openzeppelin/contracts/access/Ownable.sol\";\nimport \"../node_modules/@openzeppelin/contracts/access/AccessControl.sol\";\nimport \"../node_modules/@openzeppelin/contracts/utils/Counters.sol\";\n\n// TODO:\n// - allow to revert manufacturer requests\n\ncontract CryptoSneaker is CustomERC721, AccessControl {\n    using SafeMath for uint256;\n    using EnumerableSet for EnumerableSet.UintSet;\n    Counters.Counter internal _tokenIds;\n    \n    bytes32 public constant MANUFACTURER_ROLE = keccak256(\"MANUFACTURER_ROLE\");\n    bytes32 public constant ADMIN_ROLE = keccak256(\"ADMIN_ROLE\");\n    bytes32 public constant PENDING_MANUFACTURER = keccak256(\"PENDING_MANUFACTURER\");\n    \n    event ManufacturerApproved(address manufacturer, uint256 amount);\n    event ManufacturerDisapproved(address manufacturer, uint256 amount);\n    event ManufacturerRequest(address manufacturer, uint256 amount);\n\n   // Mappint from manufacturer candidate to the amount they offer for joining the manufacturer club\n    mapping(address => uint256) public requestedManufacturers;\n\n    constructor() public CustomERC721(\"CryptoSneaker\", \"CS\") {\n        _setupRole(ADMIN_ROLE, msg.sender);\n        _setRoleAdmin(PENDING_MANUFACTURER, ADMIN_ROLE);\n    }\n\n\n    struct Sneaker {\n        address manufacturer; // address of the manufacturere that minted the sneaker\n        string modelId; // unique id of the sneaker model, should be unique among all manufacturer models, can repeat among others\n        uint8 size; // sneaker size\n        string name; // name of the model\n    }\n\n    mapping (uint256 => Sneaker) public sneakers;\n    mapping (bytes32 => uint256) private _sneakerHashes;\n\n    // Internal function to create a Sneaker from string (name) and DNA\n    function _sneaker(address _manufacturer, string memory _modelId, string memory _name, uint8 _size) internal {\n        require(bytes(_modelId).length <= 15, \"Sneaker's model id is too long, expected up to 15 characters\");\n        require(bytes(_name).length <= 50, \"Sneaker's name is too long, expected up to 50 characters\");\n\n        Counters.increment(_tokenIds);\n        uint256 newTokenId = Counters.current(_tokenIds);\n        \n        _mint(_manufacturer, newTokenId);\n        _setTokenURI(newTokenId, _name);\n        \n        _sneakerHashes[keccak256(abi.encodePacked(_manufacturer, _modelId))] = newTokenId;\n\n        sneakers[newTokenId] = Sneaker(_manufacturer, _modelId, _size, _name);\n    }\n    \n    // Anybody who wants to become manufacturer has to request it and send some amount of currency\n    // based on that amount the contract owner can then accept the request charging from 0 up to the given amount\n    function requestManufacturerRole() public payable {\n        require(msg.value > 0, \"Request amount must be greater than 0\");\n        require(!hasRole(MANUFACTURER_ROLE, msg.sender), \"Sender is already the manufacturer\");\n        require(requestedManufacturers[msg.sender] == 0, \"Already pending request\");\n        requestedManufacturers[msg.sender] = msg.value;\n        _setupRole(PENDING_MANUFACTURER, msg.sender);\n        emit ManufacturerRequest(msg.sender, msg.value);\n    }\n    \n    // Accept the manufacturer and \n    function approveManufacturer(address payable _candidate, uint256 _amount) public {\n        require(hasRole(ADMIN_ROLE, msg.sender), \"Requires admin role\");\n        require(requestedManufacturers[_candidate] > 0 && requestedManufacturers[_candidate] >= _amount, \"Candidate must exist and have enough amount of currency\");\n\n        // refund remaining currency\n        if (requestedManufacturers[_candidate] - _amount > 0) {\n            _candidate.transfer(requestedManufacturers[_candidate] - _amount);\n        }\n\n        emit ManufacturerApproved(_candidate, _amount);\n        revokeRole(PENDING_MANUFACTURER, msg.sender);\n        _setupRole(MANUFACTURER_ROLE, _candidate);\n    } \n    \n    function disapproveManufacturer(address payable _candidate) public {\n        require(hasRole(ADMIN_ROLE, msg.sender), \"Requires admin role\");\n        require(requestedManufacturers[_candidate] > 0, \"Candidate must exist to disapprove him\");\n        \n        // refund all money to the candidate\n        _candidate.transfer(requestedManufacturers[_candidate]);\n\n        emit ManufacturerDisapproved(_candidate, requestedManufacturers[_candidate]);\n        requestedManufacturers[_candidate] = 0;\n        revokeRole(PENDING_MANUFACTURER, _candidate);\n    }\n    \n    // Creates a random Pizza from string (name)\n    function mint(string memory _modelID, string memory _name, uint8 _size) public {\n        require(hasRole(MANUFACTURER_ROLE, msg.sender),\"Requires manufacturer role\");\n        require(_sneakerHashes[keccak256(abi.encodePacked(msg.sender, _modelID))] == 0,  \"Given manufacturer already has created a sneaker with given model id\");\n        _sneaker(msg.sender, _modelID, _name, _size);\n    }\n\n\n    // Returns array of Sneakers found by owner\n    function getSneakersByOwner(address _owner)\n        public\n        view\n        returns (uint256[] memory)\n    {\n        uint256[] memory result = new uint256[](_holderTokens[_owner].length());\n        for (uint256 i = 0; i < result.length; i++) {\n            result[i] = _holderTokens[_owner].at(i);\n        }\n        return result;\n    }\n}\n",
  "sourcePath": "/Users/jakub/studia/SneakerChain/smart_contract/contracts/CryptoSneaker.sol",
  "compiler": {
    "name": "solc",
    "version": "0.6.2+commit.bacdbe57.Emscripten.clang"
  },
  "schemaVersion": "3.3.2",
  "updatedAt": "2020-12-10T20:46:17.578Z",
  "networkType": "ethereum",
  "devdoc": {
    "methods": {
      "approve(address,uint256)": {
        "details": "See {IERC721-approve}."
      },
      "balanceOf(address)": {
        "details": "See {IERC721-balanceOf}."
      },
      "baseURI()": {
        "details": "Returns the base URI set via {_setBaseURI}. This will be automatically added as a prefix in {tokenURI} to each token's URI, or to the token ID if no specific URI is set for that token ID."
      },
      "getApproved(uint256)": {
        "details": "See {IERC721-getApproved}."
      },
      "getRoleAdmin(bytes32)": {
        "details": "Returns the admin role that controls `role`. See {grantRole} and {revokeRole}.     * To change a role's admin, use {_setRoleAdmin}."
      },
      "getRoleMember(bytes32,uint256)": {
        "details": "Returns one of the accounts that have `role`. `index` must be a value between 0 and {getRoleMemberCount}, non-inclusive.     * Role bearers are not sorted in any particular way, and their ordering may change at any point.     * WARNING: When using {getRoleMember} and {getRoleMemberCount}, make sure you perform all queries on the same block. See the following https://forum.openzeppelin.com/t/iterating-over-elements-on-enumerableset-in-openzeppelin-contracts/2296[forum post] for more information."
      },
      "getRoleMemberCount(bytes32)": {
        "details": "Returns the number of accounts that have `role`. Can be used together with {getRoleMember} to enumerate all bearers of a role."
      },
      "grantRole(bytes32,address)": {
        "details": "Grants `role` to `account`.     * If `account` had not been already granted `role`, emits a {RoleGranted} event.     * Requirements:     * - the caller must have ``role``'s admin role."
      },
      "hasRole(bytes32,address)": {
        "details": "Returns `true` if `account` has been granted `role`."
      },
      "isApprovedForAll(address,address)": {
        "details": "See {IERC721-isApprovedForAll}."
      },
      "name()": {
        "details": "See {IERC721Metadata-name}."
      },
      "ownerOf(uint256)": {
        "details": "See {IERC721-ownerOf}."
      },
      "renounceRole(bytes32,address)": {
        "details": "Revokes `role` from the calling account.     * Roles are often managed via {grantRole} and {revokeRole}: this function's purpose is to provide a mechanism for accounts to lose their privileges if they are compromised (such as when a trusted device is misplaced).     * If the calling account had been granted `role`, emits a {RoleRevoked} event.     * Requirements:     * - the caller must be `account`."
      },
      "revokeRole(bytes32,address)": {
        "details": "Revokes `role` from `account`.     * If `account` had been granted `role`, emits a {RoleRevoked} event.     * Requirements:     * - the caller must have ``role``'s admin role."
      },
      "safeTransferFrom(address,address,uint256)": {
        "details": "See {IERC721-safeTransferFrom}."
      },
      "safeTransferFrom(address,address,uint256,bytes)": {
        "details": "See {IERC721-safeTransferFrom}."
      },
      "setApprovalForAll(address,bool)": {
        "details": "See {IERC721-setApprovalForAll}."
      },
      "supportsInterface(bytes4)": {
        "details": "See {IERC165-supportsInterface}.     * Time complexity O(1), guaranteed to always use less than 30 000 gas."
      },
      "symbol()": {
        "details": "See {IERC721Metadata-symbol}."
      },
      "tokenByIndex(uint256)": {
        "details": "See {IERC721Enumerable-tokenByIndex}."
      },
      "tokenOfOwnerByIndex(address,uint256)": {
        "details": "See {IERC721Enumerable-tokenOfOwnerByIndex}."
      },
      "tokenURI(uint256)": {
        "details": "See {IERC721Metadata-tokenURI}."
      },
      "totalSupply()": {
        "details": "See {IERC721Enumerable-totalSupply}."
      },
      "transferFrom(address,address,uint256)": {
        "details": "See {IERC721-transferFrom}."
      }
    }
  },
  "userdoc": {
    "methods": {}
  }
}