{
  "contractName": "CryptoSneaker",
  "abi": [
    {
      "inputs": [],
      "stateMutability": "nonpayable",
      "type": "constructor"
    },
    {
      "anonymous": false,
      "inputs": [
        {
          "indexed": true,
          "internalType": "address",
          "name": "owner",
          "type": "address"
        },
        {
          "indexed": true,
          "internalType": "address",
          "name": "approved",
          "type": "address"
        },
        {
          "indexed": true,
          "internalType": "uint256",
          "name": "tokenId",
          "type": "uint256"
        }
      ],
      "name": "Approval",
      "type": "event"
    },
    {
      "anonymous": false,
      "inputs": [
        {
          "indexed": true,
          "internalType": "address",
          "name": "owner",
          "type": "address"
        },
        {
          "indexed": true,
          "internalType": "address",
          "name": "operator",
          "type": "address"
        },
        {
          "indexed": false,
          "internalType": "bool",
          "name": "approved",
          "type": "bool"
        }
      ],
      "name": "ApprovalForAll",
      "type": "event"
    },
    {
      "anonymous": false,
      "inputs": [
        {
          "indexed": false,
          "internalType": "address",
          "name": "manufacturer",
          "type": "address"
        },
        {
          "indexed": false,
          "internalType": "uint256",
          "name": "amount",
          "type": "uint256"
        }
      ],
      "name": "ManufacturerApproved",
      "type": "event"
    },
    {
      "anonymous": false,
      "inputs": [
        {
          "indexed": false,
          "internalType": "address",
          "name": "manufacturer",
          "type": "address"
        },
        {
          "indexed": false,
          "internalType": "uint256",
          "name": "amount",
          "type": "uint256"
        }
      ],
      "name": "ManufacturerRequest",
      "type": "event"
    },
    {
      "anonymous": false,
      "inputs": [
        {
          "indexed": true,
          "internalType": "bytes32",
          "name": "role",
          "type": "bytes32"
        },
        {
          "indexed": true,
          "internalType": "bytes32",
          "name": "previousAdminRole",
          "type": "bytes32"
        },
        {
          "indexed": true,
          "internalType": "bytes32",
          "name": "newAdminRole",
          "type": "bytes32"
        }
      ],
      "name": "RoleAdminChanged",
      "type": "event"
    },
    {
      "anonymous": false,
      "inputs": [
        {
          "indexed": true,
          "internalType": "bytes32",
          "name": "role",
          "type": "bytes32"
        },
        {
          "indexed": true,
          "internalType": "address",
          "name": "account",
          "type": "address"
        },
        {
          "indexed": true,
          "internalType": "address",
          "name": "sender",
          "type": "address"
        }
      ],
      "name": "RoleGranted",
      "type": "event"
    },
    {
      "anonymous": false,
      "inputs": [
        {
          "indexed": true,
          "internalType": "bytes32",
          "name": "role",
          "type": "bytes32"
        },
        {
          "indexed": true,
          "internalType": "address",
          "name": "account",
          "type": "address"
        },
        {
          "indexed": true,
          "internalType": "address",
          "name": "sender",
          "type": "address"
        }
      ],
      "name": "RoleRevoked",
      "type": "event"
    },
    {
      "anonymous": false,
      "inputs": [
        {
          "indexed": true,
          "internalType": "address",
          "name": "from",
          "type": "address"
        },
        {
          "indexed": true,
          "internalType": "address",
          "name": "to",
          "type": "address"
        },
        {
          "indexed": true,
          "internalType": "uint256",
          "name": "tokenId",
          "type": "uint256"
        }
      ],
      "name": "Transfer",
      "type": "event"
    },
    {
      "inputs": [],
      "name": "ADMIN_ROLE",
      "outputs": [
        {
          "internalType": "bytes32",
          "name": "",
          "type": "bytes32"
        }
      ],
      "stateMutability": "view",
      "type": "function",
      "constant": true
    },
    {
      "inputs": [],
      "name": "DEFAULT_ADMIN_ROLE",
      "outputs": [
        {
          "internalType": "bytes32",
          "name": "",
          "type": "bytes32"
        }
      ],
      "stateMutability": "view",
      "type": "function",
      "constant": true
    },
    {
      "inputs": [],
      "name": "MANUFACTURER_ROLE",
      "outputs": [
        {
          "internalType": "bytes32",
          "name": "",
          "type": "bytes32"
        }
      ],
      "stateMutability": "view",
      "type": "function",
      "constant": true
    },
    {
      "inputs": [
        {
          "internalType": "address",
          "name": "to",
          "type": "address"
        },
        {
          "internalType": "uint256",
          "name": "tokenId",
          "type": "uint256"
        }
      ],
      "name": "approve",
      "outputs": [],
      "stateMutability": "nonpayable",
      "type": "function"
    },
    {
      "inputs": [
        {
          "internalType": "address",
          "name": "owner",
          "type": "address"
        }
      ],
      "name": "balanceOf",
      "outputs": [
        {
          "internalType": "uint256",
          "name": "",
          "type": "uint256"
        }
      ],
      "stateMutability": "view",
      "type": "function",
      "constant": true
    },
    {
      "inputs": [],
      "name": "baseURI",
      "outputs": [
        {
          "internalType": "string",
          "name": "",
          "type": "string"
        }
      ],
      "stateMutability": "view",
      "type": "function",
      "constant": true
    },
    {
      "inputs": [
        {
          "internalType": "uint256",
          "name": "tokenId",
          "type": "uint256"
        }
      ],
      "name": "getApproved",
      "outputs": [
        {
          "internalType": "address",
          "name": "",
          "type": "address"
        }
      ],
      "stateMutability": "view",
      "type": "function",
      "constant": true
    },
    {
      "inputs": [
        {
          "internalType": "bytes32",
          "name": "role",
          "type": "bytes32"
        }
      ],
      "name": "getRoleAdmin",
      "outputs": [
        {
          "internalType": "bytes32",
          "name": "",
          "type": "bytes32"
        }
      ],
      "stateMutability": "view",
      "type": "function",
      "constant": true
    },
    {
      "inputs": [
        {
          "internalType": "bytes32",
          "name": "role",
          "type": "bytes32"
        },
        {
          "internalType": "uint256",
          "name": "index",
          "type": "uint256"
        }
      ],
      "name": "getRoleMember",
      "outputs": [
        {
          "internalType": "address",
          "name": "",
          "type": "address"
        }
      ],
      "stateMutability": "view",
      "type": "function",
      "constant": true
    },
    {
      "inputs": [
        {
          "internalType": "bytes32",
          "name": "role",
          "type": "bytes32"
        }
      ],
      "name": "getRoleMemberCount",
      "outputs": [
        {
          "internalType": "uint256",
          "name": "",
          "type": "uint256"
        }
      ],
      "stateMutability": "view",
      "type": "function",
      "constant": true
    },
    {
      "inputs": [
        {
          "internalType": "bytes32",
          "name": "role",
          "type": "bytes32"
        },
        {
          "internalType": "address",
          "name": "account",
          "type": "address"
        }
      ],
      "name": "grantRole",
      "outputs": [],
      "stateMutability": "nonpayable",
      "type": "function"
    },
    {
      "inputs": [
        {
          "internalType": "bytes32",
          "name": "role",
          "type": "bytes32"
        },
        {
          "internalType": "address",
          "name": "account",
          "type": "address"
        }
      ],
      "name": "hasRole",
      "outputs": [
        {
          "internalType": "bool",
          "name": "",
          "type": "bool"
        }
      ],
      "stateMutability": "view",
      "type": "function",
      "constant": true
    },
    {
      "inputs": [
        {
          "internalType": "address",
          "name": "owner",
          "type": "address"
        },
        {
          "internalType": "address",
          "name": "operator",
          "type": "address"
        }
      ],
      "name": "isApprovedForAll",
      "outputs": [
        {
          "internalType": "bool",
          "name": "",
          "type": "bool"
        }
      ],
      "stateMutability": "view",
      "type": "function",
      "constant": true
    },
    {
      "inputs": [],
      "name": "name",
      "outputs": [
        {
          "internalType": "string",
          "name": "",
          "type": "string"
        }
      ],
      "stateMutability": "view",
      "type": "function",
      "constant": true
    },
    {
      "inputs": [
        {
          "internalType": "uint256",
          "name": "tokenId",
          "type": "uint256"
        }
      ],
      "name": "ownerOf",
      "outputs": [
        {
          "internalType": "address",
          "name": "",
          "type": "address"
        }
      ],
      "stateMutability": "view",
      "type": "function",
      "constant": true
    },
    {
      "inputs": [
        {
          "internalType": "bytes32",
          "name": "role",
          "type": "bytes32"
        },
        {
          "internalType": "address",
          "name": "account",
          "type": "address"
        }
      ],
      "name": "renounceRole",
      "outputs": [],
      "stateMutability": "nonpayable",
      "type": "function"
    },
    {
      "inputs": [
        {
          "internalType": "address",
          "name": "",
          "type": "address"
        }
      ],
      "name": "requestedManufacturers",
      "outputs": [
        {
          "internalType": "uint256",
          "name": "",
          "type": "uint256"
        }
      ],
      "stateMutability": "view",
      "type": "function",
      "constant": true
    },
    {
      "inputs": [
        {
          "internalType": "bytes32",
          "name": "role",
          "type": "bytes32"
        },
        {
          "internalType": "address",
          "name": "account",
          "type": "address"
        }
      ],
      "name": "revokeRole",
      "outputs": [],
      "stateMutability": "nonpayable",
      "type": "function"
    },
    {
      "inputs": [
        {
          "internalType": "address",
          "name": "from",
          "type": "address"
        },
        {
          "internalType": "address",
          "name": "to",
          "type": "address"
        },
        {
          "internalType": "uint256",
          "name": "tokenId",
          "type": "uint256"
        }
      ],
      "name": "safeTransferFrom",
      "outputs": [],
      "stateMutability": "nonpayable",
      "type": "function"
    },
    {
      "inputs": [
        {
          "internalType": "address",
          "name": "from",
          "type": "address"
        },
        {
          "internalType": "address",
          "name": "to",
          "type": "address"
        },
        {
          "internalType": "uint256",
          "name": "tokenId",
          "type": "uint256"
        },
        {
          "internalType": "bytes",
          "name": "_data",
          "type": "bytes"
        }
      ],
      "name": "safeTransferFrom",
      "outputs": [],
      "stateMutability": "nonpayable",
      "type": "function"
    },
    {
      "inputs": [
        {
          "internalType": "address",
          "name": "operator",
          "type": "address"
        },
        {
          "internalType": "bool",
          "name": "approved",
          "type": "bool"
        }
      ],
      "name": "setApprovalForAll",
      "outputs": [],
      "stateMutability": "nonpayable",
      "type": "function"
    },
    {
      "inputs": [
        {
          "internalType": "uint256",
          "name": "",
          "type": "uint256"
        }
      ],
      "name": "sneakers",
      "outputs": [
        {
          "internalType": "address",
          "name": "manufacturer",
          "type": "address"
        },
        {
          "internalType": "uint32",
          "name": "modelID",
          "type": "uint32"
        },
        {
          "internalType": "uint8",
          "name": "size",
          "type": "uint8"
        },
        {
          "internalType": "string",
          "name": "name",
          "type": "string"
        }
      ],
      "stateMutability": "view",
      "type": "function",
      "constant": true
    },
    {
      "inputs": [
        {
          "internalType": "bytes4",
          "name": "interfaceId",
          "type": "bytes4"
        }
      ],
      "name": "supportsInterface",
      "outputs": [
        {
          "internalType": "bool",
          "name": "",
          "type": "bool"
        }
      ],
      "stateMutability": "view",
      "type": "function",
      "constant": true
    },
    {
      "inputs": [],
      "name": "symbol",
      "outputs": [
        {
          "internalType": "string",
          "name": "",
          "type": "string"
        }
      ],
      "stateMutability": "view",
      "type": "function",
      "constant": true
    },
    {
      "inputs": [
        {
          "internalType": "uint256",
          "name": "index",
          "type": "uint256"
        }
      ],
      "name": "tokenByIndex",
      "outputs": [
        {
          "internalType": "uint256",
          "name": "",
          "type": "uint256"
        }
      ],
      "stateMutability": "view",
      "type": "function",
      "constant": true
    },
    {
      "inputs": [
        {
          "internalType": "address",
          "name": "owner",
          "type": "address"
        },
        {
          "internalType": "uint256",
          "name": "index",
          "type": "uint256"
        }
      ],
      "name": "tokenOfOwnerByIndex",
      "outputs": [
        {
          "internalType": "uint256",
          "name": "",
          "type": "uint256"
        }
      ],
      "stateMutability": "view",
      "type": "function",
      "constant": true
    },
    {
      "inputs": [
        {
          "internalType": "uint256",
          "name": "tokenId",
          "type": "uint256"
        }
      ],
      "name": "tokenURI",
      "outputs": [
        {
          "internalType": "string",
          "name": "",
          "type": "string"
        }
      ],
      "stateMutability": "view",
      "type": "function",
      "constant": true
    },
    {
      "inputs": [],
      "name": "totalSupply",
      "outputs": [
        {
          "internalType": "uint256",
          "name": "",
          "type": "uint256"
        }
      ],
      "stateMutability": "view",
      "type": "function",
      "constant": true
    },
    {
      "inputs": [
        {
          "internalType": "address",
          "name": "from",
          "type": "address"
        },
        {
          "internalType": "address",
          "name": "to",
          "type": "address"
        },
        {
          "internalType": "uint256",
          "name": "tokenId",
          "type": "uint256"
        }
      ],
      "name": "transferFrom",
      "outputs": [],
      "stateMutability": "nonpayable",
      "type": "function"
    },
    {
      "inputs": [],
      "name": "requestManufacturerRole",
      "outputs": [],
      "stateMutability": "payable",
      "type": "function",
      "payable": true
    },
    {
      "inputs": [
        {
          "internalType": "address payable",
          "name": "_candidate",
          "type": "address"
        },
        {
          "internalType": "uint256",
          "name": "_amount",
          "type": "uint256"
        }
      ],
      "name": "approveManufacturer",
      "outputs": [],
      "stateMutability": "nonpayable",
      "type": "function"
    },
    {
      "inputs": [
        {
          "internalType": "uint32",
          "name": "_modelID",
          "type": "uint32"
        },
        {
          "internalType": "string",
          "name": "_name",
          "type": "string"
        },
        {
          "internalType": "uint8",
          "name": "_size",
          "type": "uint8"
        }
      ],
      "name": "mint",
      "outputs": [],
      "stateMutability": "nonpayable",
      "type": "function"
    },
    {
      "inputs": [
        {
          "internalType": "address",
          "name": "_owner",
          "type": "address"
        }
      ],
      "name": "getSneakersByOwner",
      "outputs": [
        {
          "internalType": "uint256[]",
          "name": "",
          "type": "uint256[]"
        }
      ],
      "stateMutability": "view",
      "type": "function",
      "constant": true
    }
  ],
  "bytecode": "0x60806040523480156200001157600080fd5b506040518060400160405280600d81526020017f43727970746f536e65616b6572000000000000000000000000000000000000008152506040518060400160405280600281526020017f4353000000000000000000000000000000000000000000000000000000000000815250620000966301ffc9a760e01b6200015f60201b60201c565b8160069080519060200190620000ae929190620003ff565b508060079080519060200190620000c7929190620003ff565b50620000e06380ac58cd60e01b6200015f60201b60201c565b620000f8635b5e139f60e01b6200015f60201b60201c565b6200011063780e9d6360e01b6200015f60201b60201c565b50506200015960405180807f41444d494e5f524f4c4500000000000000000000000000000000000000000000815250600a0190506040518091039020336200026860201b60201c565b620004ae565b63ffffffff60e01b817bffffffffffffffffffffffffffffffffffffffffffffffffffffffff19161415620001fc576040517f08c379a000000000000000000000000000000000000000000000000000000000815260040180806020018281038252601c8152602001807f4552433136353a20696e76616c696420696e746572666163652069640000000081525060200191505060405180910390fd5b6001600080837bffffffffffffffffffffffffffffffffffffffffffffffffffffffff19167bffffffffffffffffffffffffffffffffffffffffffffffffffffffff1916815260200190815260200160002060006101000a81548160ff02191690831515021790555050565b6200027a82826200027e60201b60201c565b5050565b620002ad81600a60008581526020019081526020016000206000016200032260201b620033691790919060201c565b156200031e57620002c36200035a60201b60201c565b73ffffffffffffffffffffffffffffffffffffffff168173ffffffffffffffffffffffffffffffffffffffff16837f2f8788117e7eff1d82e926ec794901d17c78024a50270940304540a733656f0d60405160405180910390a45b5050565b600062000352836000018373ffffffffffffffffffffffffffffffffffffffff1660001b6200036260201b60201c565b905092915050565b600033905090565b6000620003768383620003dc60201b60201c565b620003d1578260000182908060018154018082558091505060019003906000526020600020016000909190919091505582600001805490508360010160008481526020019081526020016000208190555060019050620003d6565b600090505b92915050565b600080836001016000848152602001908152602001600020541415905092915050565b828054600181600116156101000203166002900490600052602060002090601f016020900481019282601f106200044257805160ff191683800117855562000473565b8280016001018555821562000473579182015b828111156200047257825182559160200191906001019062000455565b5b50905062000482919062000486565b5090565b620004ab91905b80821115620004a75760008160009055506001016200048d565b5090565b90565b61454780620004be6000396000f3fe6080604052600436106101ee5760003560e01c80639010d07c1161010d578063b17586ba116100a0578063c87b56dd1161006f578063c87b56dd14610e8e578063ca15c87314610f42578063d547741f14610f91578063e985e9c514610fec578063eecde88514611075576101ee565b8063b17586ba14610b74578063b88d4fde14610bcf578063bd2e065c14610ce1578063c32a9d4d14610de8576101ee565b8063a217fddf116100dc578063a217fddf146109fd578063a22cb46514610a28578063a52bfce514610a85578063a9dad1e414610a8f576101ee565b80639010d07c1461084a57806391d14854146108cf57806395d89b4114610942578063965288b0146109d2576101ee565b80632f745c59116101855780636352211e116101545780636352211e146106af5780636c0360eb1461072a57806370a08231146107ba57806375b238fc1461081f576101ee565b80632f745c591461051b57806336568abe1461058a57806342842e0e146105e55780634f6ccce714610660576101ee565b806318160ddd116101c157806318160ddd146103cb57806323b872dd146103f6578063248a9ca3146104715780632f2ff15d146104c0576101ee565b806301ffc9a7146101f357806306fdde0314610265578063081812fc146102f5578063095ea7b314610370575b600080fd5b3480156101ff57600080fd5b5061024b6004803603602081101561021657600080fd5b8101908080357bffffffffffffffffffffffffffffffffffffffffffffffffffffffff191690602001909291905050506110da565b604051808215151515815260200191505060405180910390f35b34801561027157600080fd5b5061027a611141565b6040518080602001828103825283818151815260200191508051906020019080838360005b838110156102ba57808201518184015260208101905061029f565b50505050905090810190601f1680156102e75780820380516001836020036101000a031916815260200191505b509250505060405180910390f35b34801561030157600080fd5b5061032e6004803603602081101561031857600080fd5b81019080803590602001909291905050506111e3565b604051808273ffffffffffffffffffffffffffffffffffffffff1673ffffffffffffffffffffffffffffffffffffffff16815260200191505060405180910390f35b34801561037c57600080fd5b506103c96004803603604081101561039357600080fd5b81019080803573ffffffffffffffffffffffffffffffffffffffff1690602001909291908035906020019092919050505061127e565b005b3480156103d757600080fd5b506103e06113c2565b6040518082815260200191505060405180910390f35b34801561040257600080fd5b5061046f6004803603606081101561041957600080fd5b81019080803573ffffffffffffffffffffffffffffffffffffffff169060200190929190803573ffffffffffffffffffffffffffffffffffffffff169060200190929190803590602001909291905050506113d3565b005b34801561047d57600080fd5b506104aa6004803603602081101561049457600080fd5b8101908080359060200190929190505050611449565b6040518082815260200191505060405180910390f35b3480156104cc57600080fd5b50610519600480360360408110156104e357600080fd5b8101908080359060200190929190803573ffffffffffffffffffffffffffffffffffffffff169060200190929190505050611469565b005b34801561052757600080fd5b506105746004803603604081101561053e57600080fd5b81019080803573ffffffffffffffffffffffffffffffffffffffff169060200190929190803590602001909291905050506114f3565b6040518082815260200191505060405180910390f35b34801561059657600080fd5b506105e3600480360360408110156105ad57600080fd5b8101908080359060200190929190803573ffffffffffffffffffffffffffffffffffffffff16906020019092919050505061154e565b005b3480156105f157600080fd5b5061065e6004803603606081101561060857600080fd5b81019080803573ffffffffffffffffffffffffffffffffffffffff169060200190929190803573ffffffffffffffffffffffffffffffffffffffff169060200190929190803590602001909291905050506115e7565b005b34801561066c57600080fd5b506106996004803603602081101561068357600080fd5b8101908080359060200190929190505050611607565b6040518082815260200191505060405180910390f35b3480156106bb57600080fd5b506106e8600480360360208110156106d257600080fd5b810190808035906020019092919050505061162a565b604051808273ffffffffffffffffffffffffffffffffffffffff1673ffffffffffffffffffffffffffffffffffffffff16815260200191505060405180910390f35b34801561073657600080fd5b5061073f611661565b6040518080602001828103825283818151815260200191508051906020019080838360005b8381101561077f578082015181840152602081019050610764565b50505050905090810190601f1680156107ac5780820380516001836020036101000a031916815260200191505b509250505060405180910390f35b3480156107c657600080fd5b50610809600480360360208110156107dd57600080fd5b81019080803573ffffffffffffffffffffffffffffffffffffffff169060200190929190505050611703565b6040518082815260200191505060405180910390f35b34801561082b57600080fd5b506108346117d8565b6040518082815260200191505060405180910390f35b34801561085657600080fd5b5061088d6004803603604081101561086d57600080fd5b810190808035906020019092919080359060200190929190505050611811565b604051808273ffffffffffffffffffffffffffffffffffffffff1673ffffffffffffffffffffffffffffffffffffffff16815260200191505060405180910390f35b3480156108db57600080fd5b50610928600480360360408110156108f257600080fd5b8101908080359060200190929190803573ffffffffffffffffffffffffffffffffffffffff169060200190929190505050611843565b604051808215151515815260200191505060405180910390f35b34801561094e57600080fd5b50610957611875565b6040518080602001828103825283818151815260200191508051906020019080838360005b8381101561099757808201518184015260208101905061097c565b50505050905090810190601f1680156109c45780820380516001836020036101000a031916815260200191505b509250505060405180910390f35b3480156109de57600080fd5b506109e7611917565b6040518082815260200191505060405180910390f35b348015610a0957600080fd5b50610a12611950565b6040518082815260200191505060405180910390f35b348015610a3457600080fd5b50610a8360048036036040811015610a4b57600080fd5b81019080803573ffffffffffffffffffffffffffffffffffffffff169060200190929190803515159060200190929190505050611957565b005b610a8d611b0f565b005b348015610a9b57600080fd5b50610b7260048036036060811015610ab257600080fd5b81019080803563ffffffff16906020019092919080359060200190640100000000811115610adf57600080fd5b820183602082011115610af157600080fd5b80359060200191846001830284011164010000000083111715610b1357600080fd5b91908080601f016020809104026020016040519081016040528093929190818152602001838380828437600081840152601f19601f820116905080830192505050505050509192919290803560ff169060200190929190505050611d63565b005b348015610b8057600080fd5b50610bcd60048036036040811015610b9757600080fd5b81019080803573ffffffffffffffffffffffffffffffffffffffff16906020019092919080359060200190929190505050611efd565b005b348015610bdb57600080fd5b50610cdf60048036036080811015610bf257600080fd5b81019080803573ffffffffffffffffffffffffffffffffffffffff169060200190929190803573ffffffffffffffffffffffffffffffffffffffff1690602001909291908035906020019092919080359060200190640100000000811115610c5957600080fd5b820183602082011115610c6b57600080fd5b80359060200191846001830284011164010000000083111715610c8d57600080fd5b91908080601f016020809104026020016040519081016040528093929190818152602001838380828437600081840152601f19601f820116905080830192505050505050509192919290505050612212565b005b348015610ced57600080fd5b50610d1a60048036036020811015610d0457600080fd5b810190808035906020019092919050505061228a565b604051808573ffffffffffffffffffffffffffffffffffffffff1673ffffffffffffffffffffffffffffffffffffffff1681526020018463ffffffff1663ffffffff1681526020018360ff1660ff16815260200180602001828103825283818151815260200191508051906020019080838360005b83811015610daa578082015181840152602081019050610d8f565b50505050905090810190601f168015610dd75780820380516001836020036101000a031916815260200191505b509550505050505060405180910390f35b348015610df457600080fd5b50610e3760048036036020811015610e0b57600080fd5b81019080803573ffffffffffffffffffffffffffffffffffffffff16906020019092919050505061238f565b6040518080602001828103825283818151815260200191508051906020019060200280838360005b83811015610e7a578082015181840152602081019050610e5f565b505050509050019250505060405180910390f35b348015610e9a57600080fd5b50610ec760048036036020811015610eb157600080fd5b8101908080359060200190929190505050612499565b6040518080602001828103825283818151815260200191508051906020019080838360005b83811015610f07578082015181840152602081019050610eec565b50505050905090810190601f168015610f345780820380516001836020036101000a031916815260200191505b509250505060405180910390f35b348015610f4e57600080fd5b50610f7b60048036036020811015610f6557600080fd5b8101908080359060200190929190505050612782565b6040518082815260200191505060405180910390f35b348015610f9d57600080fd5b50610fea60048036036040811015610fb457600080fd5b8101908080359060200190929190803573ffffffffffffffffffffffffffffffffffffffff1690602001909291905050506127a9565b005b348015610ff857600080fd5b5061105b6004803603604081101561100f57600080fd5b81019080803573ffffffffffffffffffffffffffffffffffffffff169060200190929190803573ffffffffffffffffffffffffffffffffffffffff169060200190929190505050612833565b604051808215151515815260200191505060405180910390f35b34801561108157600080fd5b506110c46004803603602081101561109857600080fd5b81019080803573ffffffffffffffffffffffffffffffffffffffff1690602001909291905050506128c7565b6040518082815260200191505060405180910390f35b6000806000837bffffffffffffffffffffffffffffffffffffffffffffffffffffffff19167bffffffffffffffffffffffffffffffffffffffffffffffffffffffff1916815260200190815260200160002060009054906101000a900460ff169050919050565b606060068054600181600116156101000203166002900480601f0160208091040260200160405190810160405280929190818152602001828054600181600116156101000203166002900480156111d95780601f106111ae576101008083540402835291602001916111d9565b820191906000526020600020905b8154815290600101906020018083116111bc57829003601f168201915b5050505050905090565b60006111ee826128df565b611243576040517f08c379a000000000000000000000000000000000000000000000000000000000815260040180806020018281038252602c8152602001806142e9602c913960400191505060405180910390fd5b6004600083815260200190815260200160002060009054906101000a900473ffffffffffffffffffffffffffffffffffffffff169050919050565b60006112898261162a565b90508073ffffffffffffffffffffffffffffffffffffffff168373ffffffffffffffffffffffffffffffffffffffff161415611310576040517f08c379a00000000000000000000000000000000000000000000000000000000081526004018080602001828103825260218152602001806143dd6021913960400191505060405180910390fd5b8073ffffffffffffffffffffffffffffffffffffffff1661132f6128fc565b73ffffffffffffffffffffffffffffffffffffffff16148061135e575061135d816113586128fc565b612833565b5b6113b3576040517f08c379a000000000000000000000000000000000000000000000000000000000815260040180806020018281038252603881526020018061423c6038913960400191505060405180910390fd5b6113bd8383612904565b505050565b60006113ce60026129bd565b905090565b6113e46113de6128fc565b826129d2565b611439576040517f08c379a00000000000000000000000000000000000000000000000000000000081526004018080602001828103825260318152602001806144346031913960400191505060405180910390fd5b611444838383612ac6565b505050565b6000600a6000838152602001908152602001600020600201549050919050565b611490600a60008481526020019081526020016000206002015461148b6128fc565b611843565b6114e5576040517f08c379a000000000000000000000000000000000000000000000000000000000815260040180806020018281038252602f815260200180614135602f913960400191505060405180910390fd5b6114ef8282612d09565b5050565b600061154682600160008673ffffffffffffffffffffffffffffffffffffffff1673ffffffffffffffffffffffffffffffffffffffff168152602001908152602001600020612d9d90919063ffffffff16565b905092915050565b6115566128fc565b73ffffffffffffffffffffffffffffffffffffffff168173ffffffffffffffffffffffffffffffffffffffff16146115d9576040517f08c379a000000000000000000000000000000000000000000000000000000000815260040180806020018281038252602f8152602001806144e3602f913960400191505060405180910390fd5b6115e38282612db7565b5050565b61160283838360405180602001604052806000815250612212565b505050565b60008061161e836002612e4b90919063ffffffff16565b50905080915050919050565b600061165a8260405180606001604052806029815260200161429e602991396002612e7a9092919063ffffffff16565b9050919050565b606060098054600181600116156101000203166002900480601f0160208091040260200160405190810160405280929190818152602001828054600181600116156101000203166002900480156116f95780601f106116ce576101008083540402835291602001916116f9565b820191906000526020600020905b8154815290600101906020018083116116dc57829003601f168201915b5050505050905090565b60008073ffffffffffffffffffffffffffffffffffffffff168273ffffffffffffffffffffffffffffffffffffffff16141561178a576040517f08c379a000000000000000000000000000000000000000000000000000000000815260040180806020018281038252602a815260200180614274602a913960400191505060405180910390fd5b6117d1600160008473ffffffffffffffffffffffffffffffffffffffff1673ffffffffffffffffffffffffffffffffffffffff168152602001908152602001600020612e99565b9050919050565b60405180807f41444d494e5f524f4c4500000000000000000000000000000000000000000000815250600a019050604051809103902081565b600061183b82600a6000868152602001908152602001600020600001612eae90919063ffffffff16565b905092915050565b600061186d82600a6000868152602001908152602001600020600001612ec890919063ffffffff16565b905092915050565b606060078054600181600116156101000203166002900480601f01602080910402602001604051908101604052809291908181526020018280546001816001161561010002031660029004801561190d5780601f106118e25761010080835404028352916020019161190d565b820191906000526020600020905b8154815290600101906020018083116118f057829003601f168201915b5050505050905090565b60405180807f4d414e5546414354555245525f524f4c450000000000000000000000000000008152506011019050604051809103902081565b6000801b81565b61195f6128fc565b73ffffffffffffffffffffffffffffffffffffffff168273ffffffffffffffffffffffffffffffffffffffff161415611a00576040517f08c379a00000000000000000000000000000000000000000000000000000000081526004018080602001828103825260198152602001807f4552433732313a20617070726f766520746f2063616c6c65720000000000000081525060200191505060405180910390fd5b8060056000611a0d6128fc565b73ffffffffffffffffffffffffffffffffffffffff1673ffffffffffffffffffffffffffffffffffffffff16815260200190815260200160002060008473ffffffffffffffffffffffffffffffffffffffff1673ffffffffffffffffffffffffffffffffffffffff16815260200190815260200160002060006101000a81548160ff0219169083151502179055508173ffffffffffffffffffffffffffffffffffffffff16611aba6128fc565b73ffffffffffffffffffffffffffffffffffffffff167f17307eab39ab6107e8899845ad3d59bd9653f200f220920489ca2b5937696c3183604051808215151515815260200191505060405180910390a35050565b60003411611b68576040517f08c379a000000000000000000000000000000000000000000000000000000000815260040180806020018281038252602581526020018061449c6025913960400191505060405180910390fd5b611ba760405180807f4d414e5546414354555245525f524f4c450000000000000000000000000000008152506011019050604051809103902033611843565b15611bfd576040517f08c379a00000000000000000000000000000000000000000000000000000000081526004018080602001828103825260228152602001806144c16022913960400191505060405180910390fd5b6000600c60003373ffffffffffffffffffffffffffffffffffffffff1673ffffffffffffffffffffffffffffffffffffffff1681526020019081526020016000205414611cb2576040517f08c379a00000000000000000000000000000000000000000000000000000000081526004018080602001828103825260178152602001807f416c72656164792070656e64696e67207265717565737400000000000000000081525060200191505060405180910390fd5b34600c60003373ffffffffffffffffffffffffffffffffffffffff1673ffffffffffffffffffffffffffffffffffffffff168152602001908152602001600020819055507fdcb5c1bce12176b90f48f2b4edcb83376c310d73b0d48d3499db1e6fe5f1f6423334604051808373ffffffffffffffffffffffffffffffffffffffff1673ffffffffffffffffffffffffffffffffffffffff1681526020018281526020019250505060405180910390a1565b611da260405180807f4d414e5546414354555245525f524f4c450000000000000000000000000000008152506011019050604051809103902033611843565b611e14576040517f08c379a000000000000000000000000000000000000000000000000000000000815260040180806020018281038252601a8152602001807f5265717569726573206d616e75666163747572657220726f6c6500000000000081525060200191505060405180910390fd5b6000600e60003386604051602001808373ffffffffffffffffffffffffffffffffffffffff1673ffffffffffffffffffffffffffffffffffffffff1660601b81526014018263ffffffff1663ffffffff1660e01b8152600401925050506040516020818303038152906040528051906020012081526020019081526020016000205414611eec576040517f08c379a00000000000000000000000000000000000000000000000000000000081526004018080602001828103825260448152602001806143996044913960600191505060405180910390fd5b611ef833848484612ef8565b505050565b611f3c60405180807f41444d494e5f524f4c4500000000000000000000000000000000000000000000815250600a019050604051809103902033611843565b611fae576040517f08c379a00000000000000000000000000000000000000000000000000000000081526004018080602001828103825260138152602001807f52657175697265732061646d696e20726f6c650000000000000000000000000081525060200191505060405180910390fd5b6000600c60008473ffffffffffffffffffffffffffffffffffffffff1673ffffffffffffffffffffffffffffffffffffffff1681526020019081526020016000205411801561203c575080600c60008473ffffffffffffffffffffffffffffffffffffffff1673ffffffffffffffffffffffffffffffffffffffff1681526020019081526020016000205410155b612091576040517f08c379a00000000000000000000000000000000000000000000000000000000081526004018080602001828103825260378152602001806144656037913960400191505060405180910390fd5b600081600c60008573ffffffffffffffffffffffffffffffffffffffff1673ffffffffffffffffffffffffffffffffffffffff16815260200190815260200160002054031115612164578173ffffffffffffffffffffffffffffffffffffffff166108fc82600c60008673ffffffffffffffffffffffffffffffffffffffff1673ffffffffffffffffffffffffffffffffffffffff16815260200190815260200160002054039081150290604051600060405180830381858888f19350505050158015612162573d6000803e3d6000fd5b505b7f3eb9ce84b6900a48c8ea1bc7e525d6bfa617156d405ef9e1eb73232776dafaf68282604051808373ffffffffffffffffffffffffffffffffffffffff1673ffffffffffffffffffffffffffffffffffffffff1681526020018281526020019250505060405180910390a161220e60405180807f4d414e5546414354555245525f524f4c45000000000000000000000000000000815250601101905060405180910390208361310b565b5050565b61222361221d6128fc565b836129d2565b612278576040517f08c379a00000000000000000000000000000000000000000000000000000000081526004018080602001828103825260318152602001806144346031913960400191505060405180910390fd5b61228484848484613119565b50505050565b600d6020528060005260406000206000915090508060000160009054906101000a900473ffffffffffffffffffffffffffffffffffffffff16908060000160149054906101000a900463ffffffff16908060000160189054906101000a900460ff1690806001018054600181600116156101000203166002900480601f0160208091040260200160405190810160405280929190818152602001828054600181600116156101000203166002900480156123855780601f1061235a57610100808354040283529160200191612385565b820191906000526020600020905b81548152906001019060200180831161236857829003601f168201915b5050505050905084565b6060806123d9600160008573ffffffffffffffffffffffffffffffffffffffff1673ffffffffffffffffffffffffffffffffffffffff168152602001908152602001600020612e99565b6040519080825280602002602001820160405280156124075781602001602082028038833980820191505090505b50905060008090505b815181101561248f5761246a81600160008773ffffffffffffffffffffffffffffffffffffffff1673ffffffffffffffffffffffffffffffffffffffff168152602001908152602001600020612d9d90919063ffffffff16565b82828151811061247657fe5b6020026020010181815250508080600101915050612410565b5080915050919050565b60606124a4826128df565b6124f9576040517f08c379a000000000000000000000000000000000000000000000000000000000815260040180806020018281038252602f81526020018061436a602f913960400191505060405180910390fd5b6060600860008481526020019081526020016000208054600181600116156101000203166002900480601f0160208091040260200160405190810160405280929190818152602001828054600181600116156101000203166002900480156125a25780601f10612577576101008083540402835291602001916125a2565b820191906000526020600020905b81548152906001019060200180831161258557829003601f168201915b505050505090506000600980546001816001161561010002031660029004905014156125d1578091505061277d565b6000815111156126aa57600981604051602001808380546001816001161561010002031660029004801561263c5780601f1061261a57610100808354040283529182019161263c565b820191906000526020600020905b815481529060010190602001808311612628575b505082805190602001908083835b6020831061266d578051825260208201915060208101905060208303925061264a565b6001836020036101000a0380198251168184511680821785525050505050509050019250505060405160208183030381529060405291505061277d565b60096126b58461318b565b60405160200180838054600181600116156101000203166002900480156127135780601f106126f1576101008083540402835291820191612713565b820191906000526020600020905b8154815290600101906020018083116126ff575b505082805190602001908083835b602083106127445780518252602082019150602081019050602083039250612721565b6001836020036101000a038019825116818451168082178552505050505050905001925050506040516020818303038152906040529150505b919050565b60006127a2600a60008481526020019081526020016000206000016132bb565b9050919050565b6127d0600a6000848152602001908152602001600020600201546127cb6128fc565b611843565b612825576040517f08c379a000000000000000000000000000000000000000000000000000000000815260040180806020018281038252603081526020018061420c6030913960400191505060405180910390fd5b61282f8282612db7565b5050565b6000600560008473ffffffffffffffffffffffffffffffffffffffff1673ffffffffffffffffffffffffffffffffffffffff16815260200190815260200160002060008373ffffffffffffffffffffffffffffffffffffffff1673ffffffffffffffffffffffffffffffffffffffff16815260200190815260200160002060009054906101000a900460ff16905092915050565b600c6020528060005260406000206000915090505481565b60006128f58260026132d090919063ffffffff16565b9050919050565b600033905090565b816004600083815260200190815260200160002060006101000a81548173ffffffffffffffffffffffffffffffffffffffff021916908373ffffffffffffffffffffffffffffffffffffffff160217905550808273ffffffffffffffffffffffffffffffffffffffff166129778361162a565b73ffffffffffffffffffffffffffffffffffffffff167f8c5be1e5ebec7d5bd14f71427d1e84f3dd0314c0f7b2291e5b200ac8c7c3b92560405160405180910390a45050565b60006129cb826000016132ea565b9050919050565b60006129dd826128df565b612a32576040517f08c379a000000000000000000000000000000000000000000000000000000000815260040180806020018281038252602c8152602001806141e0602c913960400191505060405180910390fd5b6000612a3d8361162a565b90508073ffffffffffffffffffffffffffffffffffffffff168473ffffffffffffffffffffffffffffffffffffffff161480612aac57508373ffffffffffffffffffffffffffffffffffffffff16612a94846111e3565b73ffffffffffffffffffffffffffffffffffffffff16145b80612abd5750612abc8185612833565b5b91505092915050565b8273ffffffffffffffffffffffffffffffffffffffff16612ae68261162a565b73ffffffffffffffffffffffffffffffffffffffff1614612b52576040517f08c379a00000000000000000000000000000000000000000000000000000000081526004018080602001828103825260298152602001806143416029913960400191505060405180910390fd5b600073ffffffffffffffffffffffffffffffffffffffff168273ffffffffffffffffffffffffffffffffffffffff161415612bd8576040517f08c379a00000000000000000000000000000000000000000000000000000000081526004018080602001828103825260248152602001806141966024913960400191505060405180910390fd5b612be38383836132fb565b612bee600082612904565b612c3f81600160008673ffffffffffffffffffffffffffffffffffffffff1673ffffffffffffffffffffffffffffffffffffffff16815260200190815260200160002061330090919063ffffffff16565b50612c9181600160008573ffffffffffffffffffffffffffffffffffffffff1673ffffffffffffffffffffffffffffffffffffffff16815260200190815260200160002061331a90919063ffffffff16565b50612ca8818360026133349092919063ffffffff16565b50808273ffffffffffffffffffffffffffffffffffffffff168473ffffffffffffffffffffffffffffffffffffffff167fddf252ad1be2c89b69c2b068fc378daa952ba7f163c4a11628f55a4df523b3ef60405160405180910390a4505050565b612d3181600a600085815260200190815260200160002060000161336990919063ffffffff16565b15612d9957612d3e6128fc565b73ffffffffffffffffffffffffffffffffffffffff168173ffffffffffffffffffffffffffffffffffffffff16837f2f8788117e7eff1d82e926ec794901d17c78024a50270940304540a733656f0d60405160405180910390a45b5050565b6000612dac8360000183613399565b60001c905092915050565b612ddf81600a600085815260200190815260200160002060000161341c90919063ffffffff16565b15612e4757612dec6128fc565b73ffffffffffffffffffffffffffffffffffffffff168173ffffffffffffffffffffffffffffffffffffffff16837ff6391f5c32d9c69d2a47ea670b442974b53935d1edc7fd64eb21e047a839171b60405160405180910390a45b5050565b600080600080612e5e866000018661344c565b915091508160001c8160001c8090509350935050509250929050565b6000612e8d846000018460001b846134e5565b60001c90509392505050565b6000612ea7826000016135db565b9050919050565b6000612ebd8360000183613399565b60001c905092915050565b6000612ef0836000018373ffffffffffffffffffffffffffffffffffffffff1660001b6135ec565b905092915050565b6032825110612f52576040517f08c379a00000000000000000000000000000000000000000000000000000000081526004018080602001828103825260368152602001806143fe6036913960400191505060405180910390fd5b612f5c600b61360f565b6000612f68600b613625565b9050612f748582613633565b612f7e8184613827565b80600e60008787604051602001808373ffffffffffffffffffffffffffffffffffffffff1673ffffffffffffffffffffffffffffffffffffffff1660601b81526014018263ffffffff1663ffffffff1660e01b8152600401925050506040516020818303038152906040528051906020012081526020019081526020016000208190555060405180608001604052808673ffffffffffffffffffffffffffffffffffffffff1681526020018563ffffffff1681526020018360ff16815260200184815250600d600083815260200190815260200160002060008201518160000160006101000a81548173ffffffffffffffffffffffffffffffffffffffff021916908373ffffffffffffffffffffffffffffffffffffffff16021790555060208201518160000160146101000a81548163ffffffff021916908363ffffffff16021790555060408201518160000160186101000a81548160ff021916908360ff1602179055506060820151816001019080519060200190613100929190613fed565b509050505050505050565b6131158282612d09565b5050565b613124848484612ac6565b613130848484846138b1565b613185576040517f08c379a00000000000000000000000000000000000000000000000000000000081526004018080602001828103825260328152602001806141646032913960400191505060405180910390fd5b50505050565b606060008214156131d3576040518060400160405280600181526020017f300000000000000000000000000000000000000000000000000000000000000081525090506132b6565b600082905060005b600082146131fd578080600101915050600a82816131f557fe5b0491506131db565b6060816040519080825280601f01601f1916602001820160405280156132325781602001600182028038833980820191505090505b50905060006001830390508593505b600084146132ae57600a848161325357fe5b0660300160f81b8282806001900393508151811061326d57fe5b60200101907effffffffffffffffffffffffffffffffffffffffffffffffffffffffffffff1916908160001a905350600a84816132a657fe5b049350613241565b819450505050505b919050565b60006132c9826000016135db565b9050919050565b60006132e2836000018360001b613af6565b905092915050565b600081600001805490509050919050565b505050565b6000613312836000018360001b613b19565b905092915050565b600061332c836000018360001b613c01565b905092915050565b6000613360846000018460001b8473ffffffffffffffffffffffffffffffffffffffff1660001b613c71565b90509392505050565b6000613391836000018373ffffffffffffffffffffffffffffffffffffffff1660001b613c01565b905092915050565b6000818360000180549050116133fa576040517f08c379a00000000000000000000000000000000000000000000000000000000081526004018080602001828103825260228152602001806141136022913960400191505060405180910390fd5b82600001828154811061340957fe5b9060005260206000200154905092915050565b6000613444836000018373ffffffffffffffffffffffffffffffffffffffff1660001b613b19565b905092915050565b600080828460000180549050116134ae576040517f08c379a00000000000000000000000000000000000000000000000000000000081526004018080602001828103825260228152602001806142c76022913960400191505060405180910390fd5b60008460000184815481106134bf57fe5b906000526020600020906002020190508060000154816001015492509250509250929050565b600080846001016000858152602001908152602001600020549050600081141583906135ac576040517f08c379a00000000000000000000000000000000000000000000000000000000081526004018080602001828103825283818151815260200191508051906020019080838360005b83811015613571578082015181840152602081019050613556565b50505050905090810190601f16801561359e5780820380516001836020036101000a031916815260200191505b509250505060405180910390fd5b508460000160018203815481106135bf57fe5b9060005260206000209060020201600101549150509392505050565b600081600001805490509050919050565b600080836001016000848152602001908152602001600020541415905092915050565b6001816000016000828254019250508190555050565b600081600001549050919050565b600073ffffffffffffffffffffffffffffffffffffffff168273ffffffffffffffffffffffffffffffffffffffff1614156136d6576040517f08c379a00000000000000000000000000000000000000000000000000000000081526004018080602001828103825260208152602001807f4552433732313a206d696e7420746f20746865207a65726f206164647265737381525060200191505060405180910390fd5b6136df816128df565b15613752576040517f08c379a000000000000000000000000000000000000000000000000000000000815260040180806020018281038252601c8152602001807f4552433732313a20746f6b656e20616c7265616479206d696e7465640000000081525060200191505060405180910390fd5b61375e600083836132fb565b6137af81600160008573ffffffffffffffffffffffffffffffffffffffff1673ffffffffffffffffffffffffffffffffffffffff16815260200190815260200160002061331a90919063ffffffff16565b506137c6818360026133349092919063ffffffff16565b50808273ffffffffffffffffffffffffffffffffffffffff16600073ffffffffffffffffffffffffffffffffffffffff167fddf252ad1be2c89b69c2b068fc378daa952ba7f163c4a11628f55a4df523b3ef60405160405180910390a45050565b613830826128df565b613885576040517f08c379a000000000000000000000000000000000000000000000000000000000815260040180806020018281038252602c815260200180614315602c913960400191505060405180910390fd5b806008600084815260200190815260200160002090805190602001906138ac92919061406d565b505050565b60006138d28473ffffffffffffffffffffffffffffffffffffffff16613d4d565b6138df5760019050613aee565b6060613a7563150b7a0260e01b6138f46128fc565b888787604051602401808573ffffffffffffffffffffffffffffffffffffffff1673ffffffffffffffffffffffffffffffffffffffff1681526020018473ffffffffffffffffffffffffffffffffffffffff1673ffffffffffffffffffffffffffffffffffffffff16815260200183815260200180602001828103825283818151815260200191508051906020019080838360005b838110156139a4578082015181840152602081019050613989565b50505050905090810190601f1680156139d15780820380516001836020036101000a031916815260200191505b5095505050505050604051602081830303815290604052907bffffffffffffffffffffffffffffffffffffffffffffffffffffffff19166020820180517bffffffffffffffffffffffffffffffffffffffffffffffffffffffff8381831617835250505050604051806060016040528060328152602001614164603291398773ffffffffffffffffffffffffffffffffffffffff16613d609092919063ffffffff16565b90506000818060200190516020811015613a8e57600080fd5b8101908080519060200190929190505050905063150b7a0260e01b7bffffffffffffffffffffffffffffffffffffffffffffffffffffffff1916817bffffffffffffffffffffffffffffffffffffffffffffffffffffffff191614925050505b949350505050565b600080836001016000848152602001908152602001600020541415905092915050565b60008083600101600084815260200190815260200160002054905060008114613bf55760006001820390506000600186600001805490500390506000866000018281548110613b6457fe5b9060005260206000200154905080876000018481548110613b8157fe5b9060005260206000200181905550600183018760010160008381526020019081526020016000208190555086600001805480613bb957fe5b60019003818190600052602060002001600090559055866001016000878152602001908152602001600020600090556001945050505050613bfb565b60009150505b92915050565b6000613c0d83836135ec565b613c66578260000182908060018154018082558091505060019003906000526020600020016000909190919091505582600001805490508360010160008481526020019081526020016000208190555060019050613c6b565b600090505b92915050565b6000808460010160008581526020019081526020016000205490506000811415613d1857846000016040518060400160405280868152602001858152509080600181540180825580915050600190039060005260206000209060020201600090919091909150600082015181600001556020820151816001015550508460000180549050856001016000868152602001908152602001600020819055506001915050613d46565b82856000016001830381548110613d2b57fe5b90600052602060002090600202016001018190555060009150505b9392505050565b600080823b905060008111915050919050565b6060613d6f8484600085613d78565b90509392505050565b606082471015613dd3576040517f08c379a00000000000000000000000000000000000000000000000000000000081526004018080602001828103825260268152602001806141ba6026913960400191505060405180910390fd5b613ddc85613d4d565b613e4e576040517f08c379a000000000000000000000000000000000000000000000000000000000815260040180806020018281038252601d8152602001807f416464726573733a2063616c6c20746f206e6f6e2d636f6e747261637400000081525060200191505060405180910390fd5b600060608673ffffffffffffffffffffffffffffffffffffffff1685876040518082805190602001908083835b60208310613e9e5780518252602082019150602081019050602083039250613e7b565b6001836020036101000a03801982511681845116808217855250505050505090500191505060006040518083038185875af1925050503d8060008114613f00576040519150601f19603f3d011682016040523d82523d6000602084013e613f05565b606091505b5091509150613f15828286613f21565b92505050949350505050565b60608315613f3157829050613fe6565b600083511115613f445782518084602001fd5b816040517f08c379a00000000000000000000000000000000000000000000000000000000081526004018080602001828103825283818151815260200191508051906020019080838360005b83811015613fab578082015181840152602081019050613f90565b50505050905090810190601f168015613fd85780820380516001836020036101000a031916815260200191505b509250505060405180910390fd5b9392505050565b828054600181600116156101000203166002900490600052602060002090601f016020900481019282601f1061402e57805160ff191683800117855561405c565b8280016001018555821561405c579182015b8281111561405b578251825591602001919060010190614040565b5b50905061406991906140ed565b5090565b828054600181600116156101000203166002900490600052602060002090601f016020900481019282601f106140ae57805160ff19168380011785556140dc565b828001600101855582156140dc579182015b828111156140db5782518255916020019190600101906140c0565b5b5090506140e991906140ed565b5090565b61410f91905b8082111561410b5760008160009055506001016140f3565b5090565b9056fe456e756d657261626c655365743a20696e646578206f7574206f6620626f756e6473416363657373436f6e74726f6c3a2073656e646572206d75737420626520616e2061646d696e20746f206772616e744552433732313a207472616e7366657220746f206e6f6e20455243373231526563656976657220696d706c656d656e7465724552433732313a207472616e7366657220746f20746865207a65726f2061646472657373416464726573733a20696e73756666696369656e742062616c616e636520666f722063616c6c4552433732313a206f70657261746f7220717565727920666f72206e6f6e6578697374656e7420746f6b656e416363657373436f6e74726f6c3a2073656e646572206d75737420626520616e2061646d696e20746f207265766f6b654552433732313a20617070726f76652063616c6c6572206973206e6f74206f776e6572206e6f7220617070726f76656420666f7220616c6c4552433732313a2062616c616e636520717565727920666f7220746865207a65726f20616464726573734552433732313a206f776e657220717565727920666f72206e6f6e6578697374656e7420746f6b656e456e756d657261626c654d61703a20696e646578206f7574206f6620626f756e64734552433732313a20617070726f76656420717565727920666f72206e6f6e6578697374656e7420746f6b656e4552433732314d657461646174613a2055524920736574206f66206e6f6e6578697374656e7420746f6b656e4552433732313a207472616e73666572206f6620746f6b656e2074686174206973206e6f74206f776e4552433732314d657461646174613a2055524920717565727920666f72206e6f6e6578697374656e7420746f6b656e476976656e206d616e75666163747572657220616c7265616479206861732063726561746564206120736e65616b6572207769746820676976656e206d6f64656c2069644552433732313a20617070726f76616c20746f2063757272656e74206f776e6572536e65616b6572206e616d6520697320746f6f206c6f6e672c20657870656374656420757020746f20353020636861726163746572734552433732313a207472616e736665722063616c6c6572206973206e6f74206f776e6572206e6f7220617070726f76656443616e646964617465206d75737420657869737420616e64206861766520656e6f75676820616d6f756e74206f662063757272656e63795265717565737420616d6f756e74206d7573742062652067726561746572207468616e203053656e64657220697320616c726561647920746865206d616e756661637475726572416363657373436f6e74726f6c3a2063616e206f6e6c792072656e6f756e636520726f6c657320666f722073656c66a264697066735822122059e3f3820dbcdac99246a4510efa3b050d73499adfa7f6418bc0e8bc019a283a64736f6c63430006020033",
  "source": "pragma solidity ^0.6.2;\n\nimport \"./CustomERC721.sol\";\n// import \"../node_modules/@openzeppelin/contracts/token/ERC721/ERC721.sol\";\nimport \"../node_modules/@openzeppelin/contracts/math/SafeMath.sol\";\nimport \"../node_modules/@openzeppelin/contracts/access/Ownable.sol\";\nimport \"../node_modules/@openzeppelin/contracts/access/AccessControl.sol\";\nimport \"../node_modules/@openzeppelin/contracts/utils/Counters.sol\";\n\n// TODO:\n// - allow to revert manufacturer requests\n\ncontract CryptoSneaker is CustomERC721, AccessControl {\n    using SafeMath for uint256;\n    using EnumerableSet for EnumerableSet.UintSet;\n    Counters.Counter internal _tokenIds;\n    \n    bytes32 public constant MANUFACTURER_ROLE = keccak256(\"MANUFACTURER_ROLE\");\n    bytes32 public constant ADMIN_ROLE = keccak256(\"ADMIN_ROLE\");\n    \n    event ManufacturerApproved(address manufacturer, uint256 amount);\n    event ManufacturerRequest(address manufacturer, uint256 amount);\n\n   // Mappint from manufacturer candidate to the amount they offer for joining the manufacturer club\n    mapping(address => uint256) public requestedManufacturers;\n\n    \n\n    constructor() public CustomERC721(\"CryptoSneaker\", \"CS\") {\n        _setupRole(ADMIN_ROLE, msg.sender);\n    }\n\n\n    struct Sneaker {\n        address manufacturer; // address of the manufacturere that minted the sneaker\n        uint32 modelID; // unique id of the sneaker model, should be unique among all manufacturer models, can repeat among others\n        uint8 size; // sneaker size\n        string name; // name of the model\n    }\n\n    mapping (uint256 => Sneaker) public sneakers;\n    mapping (bytes32 => uint256) private _sneakerHashes;\n\n    // Internal function to create a Sneaker from string (name) and DNA\n    function _sneaker(address _manufacturer, uint32 _id, string memory _name, uint8 _size) internal {\n        require(bytes(_name).length < 50, \"Sneaker name is too long, expected up to 50 characters\");\n\n        Counters.increment(_tokenIds);\n        uint256 newTokenId = Counters.current(_tokenIds);\n        \n        _mint(_manufacturer, newTokenId);\n        _setTokenURI(newTokenId, _name);\n        \n        _sneakerHashes[keccak256(abi.encodePacked(_manufacturer, _id))] = newTokenId;\n\n        sneakers[newTokenId] = Sneaker(_manufacturer, _id, _size, _name);\n    }\n    \n    // Anybody who wants to become manufacturer has to request it and send some amount of currency\n    // based on that amount the contract owner can then accept the request charging from 0 up to the given amount\n    function requestManufacturerRole() public payable {\n        require(msg.value > 0, \"Request amount must be greater than 0\");\n        require(!hasRole(MANUFACTURER_ROLE, msg.sender), \"Sender is already the manufacturer\");\n        require(requestedManufacturers[msg.sender] == 0, \"Already pending request\");\n        requestedManufacturers[msg.sender] = msg.value;\n        emit ManufacturerRequest(msg.sender, msg.value);\n    }\n    \n    // Accept the manufacturer and \n    function approveManufacturer(address payable _candidate, uint256 _amount) public {\n        require(hasRole(ADMIN_ROLE, msg.sender), \"Requires admin role\");\n        require(requestedManufacturers[_candidate] > 0 && requestedManufacturers[_candidate] >= _amount, \"Candidate must exist and have enough amount of currency\");\n\n        // refund remaining currency\n        if (requestedManufacturers[_candidate] - _amount > 0) {\n            _candidate.transfer(requestedManufacturers[_candidate] - _amount);\n        }\n\n        emit ManufacturerApproved(_candidate, _amount);\n        _setupRole(MANUFACTURER_ROLE, _candidate);\n    } \n    \n    // Creates a random Pizza from string (name)\n    function mint(uint32 _modelID, string memory _name, uint8 _size) public {\n        require(hasRole(MANUFACTURER_ROLE, msg.sender),\"Requires manufacturer role\");\n        require(_sneakerHashes[keccak256(abi.encodePacked(msg.sender, _modelID))] == 0,  \"Given manufacturer already has created a sneaker with given model id\");\n        _sneaker(msg.sender, _modelID, _name, _size);\n    }\n\n\n    // Returns array of Sneakers found by owner\n    function getSneakersByOwner(address _owner)\n        public\n        view\n        returns (uint256[] memory)\n    {\n        uint256[] memory result = new uint256[](_holderTokens[_owner].length());\n        for (uint256 i = 0; i < result.length; i++) {\n            result[i] = _holderTokens[_owner].at(i);\n        }\n        return result;\n    }\n}\n",
  "sourcePath": "/Users/jakub/studia/SneakerChain/smart_contract/contracts/CryptoSneaker.sol",
  "compiler": {
    "name": "solc",
    "version": "0.6.2+commit.bacdbe57.Emscripten.clang"
  },
  "schemaVersion": "3.3.2",
  "updatedAt": "2020-12-10T13:36:55.901Z",
  "networkType": "ethereum",
  "devdoc": {
    "methods": {
      "approve(address,uint256)": {
        "details": "See {IERC721-approve}."
      },
      "balanceOf(address)": {
        "details": "See {IERC721-balanceOf}."
      },
      "baseURI()": {
        "details": "Returns the base URI set via {_setBaseURI}. This will be automatically added as a prefix in {tokenURI} to each token's URI, or to the token ID if no specific URI is set for that token ID."
      },
      "getApproved(uint256)": {
        "details": "See {IERC721-getApproved}."
      },
      "getRoleAdmin(bytes32)": {
        "details": "Returns the admin role that controls `role`. See {grantRole} and {revokeRole}.     * To change a role's admin, use {_setRoleAdmin}."
      },
      "getRoleMember(bytes32,uint256)": {
        "details": "Returns one of the accounts that have `role`. `index` must be a value between 0 and {getRoleMemberCount}, non-inclusive.     * Role bearers are not sorted in any particular way, and their ordering may change at any point.     * WARNING: When using {getRoleMember} and {getRoleMemberCount}, make sure you perform all queries on the same block. See the following https://forum.openzeppelin.com/t/iterating-over-elements-on-enumerableset-in-openzeppelin-contracts/2296[forum post] for more information."
      },
      "getRoleMemberCount(bytes32)": {
        "details": "Returns the number of accounts that have `role`. Can be used together with {getRoleMember} to enumerate all bearers of a role."
      },
      "grantRole(bytes32,address)": {
        "details": "Grants `role` to `account`.     * If `account` had not been already granted `role`, emits a {RoleGranted} event.     * Requirements:     * - the caller must have ``role``'s admin role."
      },
      "hasRole(bytes32,address)": {
        "details": "Returns `true` if `account` has been granted `role`."
      },
      "isApprovedForAll(address,address)": {
        "details": "See {IERC721-isApprovedForAll}."
      },
      "name()": {
        "details": "See {IERC721Metadata-name}."
      },
      "ownerOf(uint256)": {
        "details": "See {IERC721-ownerOf}."
      },
      "renounceRole(bytes32,address)": {
        "details": "Revokes `role` from the calling account.     * Roles are often managed via {grantRole} and {revokeRole}: this function's purpose is to provide a mechanism for accounts to lose their privileges if they are compromised (such as when a trusted device is misplaced).     * If the calling account had been granted `role`, emits a {RoleRevoked} event.     * Requirements:     * - the caller must be `account`."
      },
      "revokeRole(bytes32,address)": {
        "details": "Revokes `role` from `account`.     * If `account` had been granted `role`, emits a {RoleRevoked} event.     * Requirements:     * - the caller must have ``role``'s admin role."
      },
      "safeTransferFrom(address,address,uint256)": {
        "details": "See {IERC721-safeTransferFrom}."
      },
      "safeTransferFrom(address,address,uint256,bytes)": {
        "details": "See {IERC721-safeTransferFrom}."
      },
      "setApprovalForAll(address,bool)": {
        "details": "See {IERC721-setApprovalForAll}."
      },
      "supportsInterface(bytes4)": {
        "details": "See {IERC165-supportsInterface}.     * Time complexity O(1), guaranteed to always use less than 30 000 gas."
      },
      "symbol()": {
        "details": "See {IERC721Metadata-symbol}."
      },
      "tokenByIndex(uint256)": {
        "details": "See {IERC721Enumerable-tokenByIndex}."
      },
      "tokenOfOwnerByIndex(address,uint256)": {
        "details": "See {IERC721Enumerable-tokenOfOwnerByIndex}."
      },
      "tokenURI(uint256)": {
        "details": "See {IERC721Metadata-tokenURI}."
      },
      "totalSupply()": {
        "details": "See {IERC721Enumerable-totalSupply}."
      },
      "transferFrom(address,address,uint256)": {
        "details": "See {IERC721-transferFrom}."
      }
    }
  },
  "userdoc": {
    "methods": {}
  }
}